{
  "_format": "hh-sol-artifact-1",
  "contractName": "SoulHub",
  "sourceName": "src/backend/contracts/SoulHub.sol",
  "abi": [
    {
      "inputs": [
        {
          "internalType": "uint256",
          "name": "_fee",
          "type": "uint256"
        }
      ],
      "stateMutability": "nonpayable",
      "type": "constructor"
    },
    {
      "anonymous": false,
      "inputs": [
        {
          "indexed": false,
          "internalType": "uint256",
          "name": "sbtId",
          "type": "uint256"
        },
        {
          "indexed": true,
          "internalType": "address",
          "name": "sbt",
          "type": "address"
        },
        {
          "indexed": false,
          "internalType": "uint256",
          "name": "sbtItemId",
          "type": "uint256"
        },
        {
          "indexed": false,
          "internalType": "address",
          "name": "owner",
          "type": "address"
        },
        {
          "indexed": false,
          "internalType": "address",
          "name": "receiver",
          "type": "address"
        }
      ],
      "name": "AccessGranted",
      "type": "event"
    },
    {
      "anonymous": false,
      "inputs": [
        {
          "indexed": false,
          "internalType": "uint256",
          "name": "sbtId",
          "type": "uint256"
        },
        {
          "indexed": true,
          "internalType": "address",
          "name": "sbt",
          "type": "address"
        },
        {
          "indexed": false,
          "internalType": "uint256",
          "name": "sbtItemId",
          "type": "uint256"
        },
        {
          "indexed": false,
          "internalType": "address",
          "name": "owner",
          "type": "address"
        },
        {
          "indexed": false,
          "internalType": "address",
          "name": "receiver",
          "type": "address"
        }
      ],
      "name": "AccessRevoked",
      "type": "event"
    },
    {
      "anonymous": false,
      "inputs": [
        {
          "indexed": false,
          "internalType": "uint256",
          "name": "soulId",
          "type": "uint256"
        },
        {
          "indexed": true,
          "internalType": "address",
          "name": "soul",
          "type": "address"
        },
        {
          "indexed": false,
          "internalType": "address",
          "name": "minter",
          "type": "address"
        }
      ],
      "name": "CreatedSoul",
      "type": "event"
    },
    {
      "anonymous": false,
      "inputs": [
        {
          "indexed": false,
          "internalType": "uint256",
          "name": "sbtId",
          "type": "uint256"
        },
        {
          "indexed": true,
          "internalType": "address",
          "name": "sbt",
          "type": "address"
        },
        {
          "indexed": false,
          "internalType": "uint256",
          "name": "sbtItemId",
          "type": "uint256"
        },
        {
          "indexed": false,
          "internalType": "uint256",
          "name": "soulId",
          "type": "uint256"
        },
        {
          "indexed": false,
          "internalType": "address",
          "name": "minter",
          "type": "address"
        }
      ],
      "name": "Offered",
      "type": "event"
    },
    {
      "anonymous": false,
      "inputs": [
        {
          "indexed": false,
          "internalType": "uint256",
          "name": "sbtId",
          "type": "uint256"
        },
        {
          "indexed": true,
          "internalType": "address",
          "name": "sbt",
          "type": "address"
        },
        {
          "indexed": false,
          "internalType": "uint256",
          "name": "sbtItemId",
          "type": "uint256"
        },
        {
          "indexed": false,
          "internalType": "uint256",
          "name": "soulId",
          "type": "uint256"
        },
        {
          "indexed": false,
          "internalType": "address",
          "name": "minter",
          "type": "address"
        },
        {
          "indexed": false,
          "internalType": "address",
          "name": "mintee",
          "type": "address"
        }
      ],
      "name": "Received",
      "type": "event"
    },
    {
      "inputs": [
        {
          "internalType": "address",
          "name": "",
          "type": "address"
        },
        {
          "internalType": "uint256",
          "name": "",
          "type": "uint256"
        }
      ],
      "name": "_activeSBTs",
      "outputs": [
        {
          "internalType": "uint256",
          "name": "",
          "type": "uint256"
        }
      ],
      "stateMutability": "view",
      "type": "function"
    },
    {
      "inputs": [
        {
          "internalType": "uint256",
          "name": "",
          "type": "uint256"
        },
        {
          "internalType": "uint256",
          "name": "",
          "type": "uint256"
        }
      ],
      "name": "_permittedUsers",
      "outputs": [
        {
          "internalType": "address",
          "name": "",
          "type": "address"
        }
      ],
      "stateMutability": "view",
      "type": "function"
    },
    {
      "inputs": [
        {
          "internalType": "uint256",
          "name": "",
          "type": "uint256"
        }
      ],
      "name": "_sbtItems",
      "outputs": [
        {
          "internalType": "uint256",
          "name": "tokenId",
          "type": "uint256"
        },
        {
          "internalType": "contract SBT",
          "name": "sbt",
          "type": "address"
        },
        {
          "internalType": "uint256",
          "name": "soulItemId",
          "type": "uint256"
        },
        {
          "internalType": "address payable",
          "name": "minter",
          "type": "address"
        }
      ],
      "stateMutability": "view",
      "type": "function"
    },
    {
      "inputs": [
        {
          "internalType": "uint256",
          "name": "",
          "type": "uint256"
        }
      ],
      "name": "_soulContentCount",
      "outputs": [
        {
          "internalType": "uint256",
          "name": "",
          "type": "uint256"
        }
      ],
      "stateMutability": "view",
      "type": "function"
    },
    {
      "inputs": [
        {
          "internalType": "uint256",
          "name": "",
          "type": "uint256"
        }
      ],
      "name": "_soulItems",
      "outputs": [
        {
          "internalType": "uint256",
          "name": "soulId",
          "type": "uint256"
        },
        {
          "internalType": "contract Soul",
          "name": "soul",
          "type": "address"
        },
        {
          "internalType": "address",
          "name": "minter",
          "type": "address"
        }
      ],
      "stateMutability": "view",
      "type": "function"
    },
    {
      "inputs": [
        {
          "internalType": "uint256",
          "name": "_sbtId",
          "type": "uint256"
        },
        {
          "internalType": "address",
          "name": "_user",
          "type": "address"
        }
      ],
      "name": "checkAccess",
      "outputs": [
        {
          "internalType": "bool",
          "name": "",
          "type": "bool"
        }
      ],
      "stateMutability": "view",
      "type": "function"
    },
    {
      "inputs": [
        {
          "internalType": "contract SBT",
          "name": "_sbt",
          "type": "address"
        },
        {
          "internalType": "uint256",
          "name": "_sbtId",
          "type": "uint256"
        },
        {
          "internalType": "uint256",
          "name": "_soulId",
          "type": "uint256"
        }
      ],
      "name": "createSBTItem",
      "outputs": [],
      "stateMutability": "nonpayable",
      "type": "function"
    },
    {
      "inputs": [
        {
          "internalType": "contract SBT",
          "name": "_sbt",
          "type": "address"
        },
        {
          "internalType": "uint256",
          "name": "_sbtId",
          "type": "uint256"
        },
        {
          "internalType": "uint256",
          "name": "_soulId",
          "type": "uint256"
        },
        {
          "internalType": "address",
          "name": "_mintee",
          "type": "address"
        }
      ],
      "name": "createSBTItemFor",
      "outputs": [],
      "stateMutability": "nonpayable",
      "type": "function"
    },
    {
      "inputs": [
        {
          "internalType": "contract Soul",
          "name": "_soul",
          "type": "address"
        },
        {
          "internalType": "uint256",
          "name": "_soulId",
          "type": "uint256"
        }
      ],
      "name": "createSoulItem",
      "outputs": [],
      "stateMutability": "nonpayable",
      "type": "function"
    },
    {
      "inputs": [],
      "name": "fee",
      "outputs": [
        {
          "internalType": "uint256",
          "name": "",
          "type": "uint256"
        }
      ],
      "stateMutability": "view",
      "type": "function"
    },
    {
      "inputs": [],
      "name": "feeAccount",
      "outputs": [
        {
          "internalType": "address payable",
          "name": "",
          "type": "address"
        }
      ],
      "stateMutability": "view",
      "type": "function"
    },
    {
      "inputs": [],
      "name": "getBalance",
      "outputs": [
        {
          "internalType": "uint256",
          "name": "",
          "type": "uint256"
        }
      ],
      "stateMutability": "view",
      "type": "function"
    },
    {
      "inputs": [
        {
          "internalType": "uint256",
          "name": "_soulId",
          "type": "uint256"
        }
      ],
      "name": "getSoulContentCount",
      "outputs": [
        {
          "internalType": "uint256",
          "name": "",
          "type": "uint256"
        }
      ],
      "stateMutability": "view",
      "type": "function"
    },
    {
      "inputs": [
        {
          "internalType": "contract SBT",
          "name": "_sbt",
          "type": "address"
        },
        {
          "internalType": "uint256",
          "name": "_sbtId",
          "type": "uint256"
        },
        {
          "internalType": "address",
          "name": "_to",
          "type": "address"
        }
      ],
      "name": "grantAccess",
      "outputs": [],
      "stateMutability": "nonpayable",
      "type": "function"
    },
    {
      "inputs": [
        {
          "internalType": "contract SBT",
          "name": "_sbt",
          "type": "address"
        },
        {
          "internalType": "uint256",
          "name": "_sbtId",
          "type": "uint256"
        },
        {
          "internalType": "address",
          "name": "_user",
          "type": "address"
        }
      ],
      "name": "revokeAccess",
      "outputs": [],
      "stateMutability": "nonpayable",
      "type": "function"
    },
    {
      "inputs": [],
      "name": "sbtItemCount",
      "outputs": [
        {
          "internalType": "uint256",
          "name": "",
          "type": "uint256"
        }
      ],
      "stateMutability": "view",
      "type": "function"
    },
    {
      "inputs": [],
      "name": "soulItemCount",
      "outputs": [
        {
          "internalType": "uint256",
          "name": "",
          "type": "uint256"
        }
      ],
      "stateMutability": "view",
      "type": "function"
    },
    {
      "inputs": [],
      "name": "transferGas",
      "outputs": [],
      "stateMutability": "payable",
      "type": "function"
    }
  ],
  "bytecode": "0x60c06040523480156200001157600080fd5b506040516200236a3803806200236a83398181016040528101906200003791906200009c565b60016000819055503373ffffffffffffffffffffffffffffffffffffffff1660808173ffffffffffffffffffffffffffffffffffffffff1660601b815250508060a0818152505050620000ec565b6000815190506200009681620000d2565b92915050565b600060208284031215620000af57600080fd5b6000620000bf8482850162000085565b91505092915050565b6000819050919050565b620000dd81620000c8565b8114620000e957600080fd5b50565b60805160601c60a051612247620001236000396000818161159b0152611834015260008181610de901526117fa01526122476000f3fe6080604052600436106101095760003560e01c8063836081eb11610095578063d2dcdfb811610064578063d2dcdfb8146103a8578063d6096750146103e5578063ddca3f431461040e578063f1f8cad714610439578063fa03f7971461046257610109565b8063836081eb146102c65780639d02fa6e146102ef578063a1d35da41461032e578063d13c87031461036b57610109565b806343882607116100dc57806343882607146101cf5780634c909c95146101f85780634fb3aad71461022157806365e17c9d1461025e57806382039e251461028957610109565b806312065fe01461010e5780631c61454b146101395780631d6b3df7146101795780632c8da146146101a4575b600080fd5b34801561011a57600080fd5b5061012361046c565b6040516101309190611d75565b60405180910390f35b34801561014557600080fd5b50610160600480360381019061015b9190611ae6565b61048b565b6040516101709493929190611db9565b60405180910390f35b34801561018557600080fd5b5061018e6104fb565b60405161019b9190611d75565b60405180910390f35b3480156101b057600080fd5b506101b9610501565b6040516101c69190611d75565b60405180910390f35b3480156101db57600080fd5b506101f660048036038101906101f191906119f8565b610507565b005b34801561020457600080fd5b5061021f600480360381019061021a91906119a9565b610716565b005b34801561022d57600080fd5b5061024860048036038101906102439190611ae6565b610dca565b6040516102559190611d75565b60405180910390f35b34801561026a57600080fd5b50610273610de7565b6040516102809190611c88565b60405180910390f35b34801561029557600080fd5b506102b060048036038101906102ab9190611b4b565b610e0b565b6040516102bd9190611c6d565b60405180910390f35b3480156102d257600080fd5b506102ed60048036038101906102e89190611a47565b610e59565b005b3480156102fb57600080fd5b5061031660048036038101906103119190611ae6565b611130565b60405161032593929190611dfe565b60405180910390f35b34801561033a57600080fd5b5061035560048036038101906103509190611ae6565b61119a565b6040516103629190611d75565b60405180910390f35b34801561037757600080fd5b50610392600480360381019061038d9190611b0f565b6111b2565b60405161039f9190611cda565b60405180910390f35b3480156103b457600080fd5b506103cf60048036038101906103ca919061196d565b61139e565b6040516103dc9190611d75565b60405180910390f35b3480156103f157600080fd5b5061040c60048036038101906104079190611aaa565b6113cf565b005b34801561041a57600080fd5b50610423611599565b6040516104309190611d75565b60405180910390f35b34801561044557600080fd5b50610460600480360381019061045b91906119a9565b6115bd565b005b61046a6117f8565b005b60003373ffffffffffffffffffffffffffffffffffffffff1631905090565b60046020528060005260406000206000915090508060000154908060010160009054906101000a900473ffffffffffffffffffffffffffffffffffffffff16908060020154908060030160009054906101000a900473ffffffffffffffffffffffffffffffffffffffff16905084565b60015481565b60025481565b61050f611881565b600160025461051e9190611f23565b821461055f576040517f08c379a000000000000000000000000000000000000000000000000000000000815260040161055690611d15565b60405180910390fd5b6002600081548092919061057290612073565b919050555060405180608001604052808381526020018473ffffffffffffffffffffffffffffffffffffffff16815260200160025481526020013373ffffffffffffffffffffffffffffffffffffffff168152506004600060025481526020019081526020016000206000820151816000015560208201518160010160006101000a81548173ffffffffffffffffffffffffffffffffffffffff021916908373ffffffffffffffffffffffffffffffffffffffff1602179055506040820151816002015560608201518160030160006101000a81548173ffffffffffffffffffffffffffffffffffffffff021916908373ffffffffffffffffffffffffffffffffffffffff16021790555090505060016005600083815260200190815260200160002060008282546106a49190611f23565b925050819055508273ffffffffffffffffffffffffffffffffffffffff167f655a0cf9c8db81512be9a76dc1c5ae5380b8816ce6ad659cd61b715e2999d59a8360025484336040516106f99493929190611e7a565b60405180910390a26107096117f8565b6107116118d1565b505050565b61071e611881565b3373ffffffffffffffffffffffffffffffffffffffff168373ffffffffffffffffffffffffffffffffffffffff16636352211e846040518263ffffffff1660e01b815260040161076e9190611d75565b60206040518083038186803b15801561078657600080fd5b505afa15801561079a573d6000803e3d6000fd5b505050506040513d601f19601f820116820180604052508101906107be9190611944565b73ffffffffffffffffffffffffffffffffffffffff1614610814576040517f08c379a000000000000000000000000000000000000000000000000000000000815260040161080b90611cf5565b60405180910390fd5b60005b6006600084815260200190815260200160002080549050811015610a9b578173ffffffffffffffffffffffffffffffffffffffff16600660008581526020019081526020016000208281548110610897577f4e487b7100000000000000000000000000000000000000000000000000000000600052603260045260246000fd5b9060005260206000200160009054906101000a900473ffffffffffffffffffffffffffffffffffffffff1673ffffffffffffffffffffffffffffffffffffffff161415610a885760066000848152602001908152602001600020600160066000868152602001908152602001600020805490506109149190611f79565b8154811061094b577f4e487b7100000000000000000000000000000000000000000000000000000000600052603260045260246000fd5b9060005260206000200160009054906101000a900473ffffffffffffffffffffffffffffffffffffffff166006600085815260200190815260200160002082815481106109c1577f4e487b7100000000000000000000000000000000000000000000000000000000600052603260045260246000fd5b9060005260206000200160006101000a81548173ffffffffffffffffffffffffffffffffffffffff021916908373ffffffffffffffffffffffffffffffffffffffff16021790555060066000848152602001908152602001600020805480610a52577f4e487b7100000000000000000000000000000000000000000000000000000000600052603160045260246000fd5b6001900381819060005260206000200160006101000a81549073ffffffffffffffffffffffffffffffffffffffff021916905590555b8080610a9390612073565b915050610817565b5060005b600760008373ffffffffffffffffffffffffffffffffffffffff1673ffffffffffffffffffffffffffffffffffffffff16815260200190815260200160002080549050811015610d665782600760008473ffffffffffffffffffffffffffffffffffffffff1673ffffffffffffffffffffffffffffffffffffffff1681526020019081526020016000208281548110610b61577f4e487b7100000000000000000000000000000000000000000000000000000000600052603260045260246000fd5b90600052602060002001541415610d5357600760008373ffffffffffffffffffffffffffffffffffffffff1673ffffffffffffffffffffffffffffffffffffffff1681526020019081526020016000206001600760008573ffffffffffffffffffffffffffffffffffffffff1673ffffffffffffffffffffffffffffffffffffffff16815260200190815260200160002080549050610c009190611f79565b81548110610c37577f4e487b7100000000000000000000000000000000000000000000000000000000600052603260045260246000fd5b9060005260206000200154600760008473ffffffffffffffffffffffffffffffffffffffff1673ffffffffffffffffffffffffffffffffffffffff1681526020019081526020016000208281548110610cb9577f4e487b7100000000000000000000000000000000000000000000000000000000600052603260045260246000fd5b9060005260206000200181905550600760008373ffffffffffffffffffffffffffffffffffffffff1673ffffffffffffffffffffffffffffffffffffffff168152602001908152602001600020805480610d3c577f4e487b7100000000000000000000000000000000000000000000000000000000600052603160045260246000fd5b600190038181906000526020600020016000905590555b8080610d5e90612073565b915050610a9f565b508273ffffffffffffffffffffffffffffffffffffffff167f51ae65be747682556f18eb2ee0f3929a33db715ebd3e667478532f8c11c2a632836002543385604051610db59493929190611e35565b60405180910390a2610dc56118d1565b505050565b600060056000838152602001908152602001600020549050919050565b7f000000000000000000000000000000000000000000000000000000000000000081565b60066020528160005260406000208181548110610e2757600080fd5b906000526020600020016000915091509054906101000a900473ffffffffffffffffffffffffffffffffffffffff1681565b610e61611881565b6001600254610e709190611f23565b8314610eb1576040517f08c379a0000000000000000000000000000000000000000000000000000000008152600401610ea890611d15565b60405180910390fd5b60026000815480929190610ec490612073565b919050555060405180608001604052808481526020018573ffffffffffffffffffffffffffffffffffffffff16815260200160025481526020013373ffffffffffffffffffffffffffffffffffffffff168152506004600060025481526020019081526020016000206000820151816000015560208201518160010160006101000a81548173ffffffffffffffffffffffffffffffffffffffff021916908373ffffffffffffffffffffffffffffffffffffffff1602179055506040820151816002015560608201518160030160006101000a81548173ffffffffffffffffffffffffffffffffffffffff021916908373ffffffffffffffffffffffffffffffffffffffff1602179055509050506001600560008481526020019081526020016000206000828254610ff69190611f23565b925050819055508373ffffffffffffffffffffffffffffffffffffffff166323b872dd3383866040518463ffffffff1660e01b815260040161103a93929190611ca3565b600060405180830381600087803b15801561105457600080fd5b505af1158015611068573d6000803e3d6000fd5b505050508373ffffffffffffffffffffffffffffffffffffffff167f655a0cf9c8db81512be9a76dc1c5ae5380b8816ce6ad659cd61b715e2999d59a8460025485336040516110ba9493929190611e7a565b60405180910390a28373ffffffffffffffffffffffffffffffffffffffff167f60c3af4bd3198369c53ddf46c7c73f57c3e7949c54c52b18187de1924bfd65a084600254853386604051611112959493929190611ebf565b60405180910390a26111226117f8565b61112a6118d1565b50505050565b60036020528060005260406000206000915090508060000154908060010160009054906101000a900473ffffffffffffffffffffffffffffffffffffffff16908060020160009054906101000a900473ffffffffffffffffffffffffffffffffffffffff16905083565b60056020528060005260406000206000915090505481565b6000806000905060005b600660008681526020019081526020016000208054905081101561129b578373ffffffffffffffffffffffffffffffffffffffff1660066000878152602001908152602001600020828154811061123c577f4e487b7100000000000000000000000000000000000000000000000000000000600052603260045260246000fd5b9060005260206000200160009054906101000a900473ffffffffffffffffffffffffffffffffffffffff1673ffffffffffffffffffffffffffffffffffffffff16141561128857600191505b808061129390612073565b9150506111bc565b5060005b600760008573ffffffffffffffffffffffffffffffffffffffff1673ffffffffffffffffffffffffffffffffffffffff168152602001908152602001600020805490508110156113935784600760008673ffffffffffffffffffffffffffffffffffffffff1673ffffffffffffffffffffffffffffffffffffffff1681526020019081526020016000208281548110611361577f4e487b7100000000000000000000000000000000000000000000000000000000600052603260045260246000fd5b90600052602060002001541415611380576001801561137d5750815b91505b808061138b90612073565b91505061129f565b508091505092915050565b600760205281600052604060002081815481106113ba57600080fd5b90600052602060002001600091509150505481565b6113d7611881565b600180546113e59190611f23565b8114611426576040517f08c379a000000000000000000000000000000000000000000000000000000000815260040161141d90611d55565b60405180910390fd5b6001600081548092919061143990612073565b919050555060405180606001604052808281526020018373ffffffffffffffffffffffffffffffffffffffff1681526020013373ffffffffffffffffffffffffffffffffffffffff168152506003600060015481526020019081526020016000206000820151816000015560208201518160010160006101000a81548173ffffffffffffffffffffffffffffffffffffffff021916908373ffffffffffffffffffffffffffffffffffffffff16021790555060408201518160020160006101000a81548173ffffffffffffffffffffffffffffffffffffffff021916908373ffffffffffffffffffffffffffffffffffffffff1602179055509050508173ffffffffffffffffffffffffffffffffffffffff167f9957802590e9d40d57be33b4d37eecf5aff4900395a367c06461336d137547f3823360405161157d929190611d90565b60405180910390a261158d6117f8565b6115956118d1565b5050565b7f000000000000000000000000000000000000000000000000000000000000000081565b6115c5611881565b3373ffffffffffffffffffffffffffffffffffffffff168373ffffffffffffffffffffffffffffffffffffffff16636352211e846040518263ffffffff1660e01b81526004016116159190611d75565b60206040518083038186803b15801561162d57600080fd5b505afa158015611641573d6000803e3d6000fd5b505050506040513d601f19601f820116820180604052508101906116659190611944565b73ffffffffffffffffffffffffffffffffffffffff16146116bb576040517f08c379a00000000000000000000000000000000000000000000000000000000081526004016116b290611cf5565b60405180910390fd5b60066000838152602001908152602001600020819080600181540180825580915050600190039060005260206000200160009091909190916101000a81548173ffffffffffffffffffffffffffffffffffffffff021916908373ffffffffffffffffffffffffffffffffffffffff160217905550600760008273ffffffffffffffffffffffffffffffffffffffff1673ffffffffffffffffffffffffffffffffffffffff1681526020019081526020016000208290806001815401808255809150506001900390600052602060002001600090919091909150558273ffffffffffffffffffffffffffffffffffffffff167f877e3c9bad8c007a196b2e7625bcd65fe3fd14227894cba4dd96ab2c73fd738a8360025433856040516117e39493929190611e35565b60405180910390a26117f36118d1565b505050565b7f000000000000000000000000000000000000000000000000000000000000000073ffffffffffffffffffffffffffffffffffffffff166108fc7f00000000000000000000000000000000000000000000000000000000000000009081150290604051600060405180830381858888f1935050505015801561187e573d6000803e3d6000fd5b50565b600260005414156118c7576040517f08c379a00000000000000000000000000000000000000000000000000000000081526004016118be90611d35565b60405180910390fd5b6002600081905550565b6001600081905550565b6000813590506118ea816121b5565b92915050565b6000815190506118ff816121b5565b92915050565b600081359050611914816121cc565b92915050565b600081359050611929816121e3565b92915050565b60008135905061193e816121fa565b92915050565b60006020828403121561195657600080fd5b6000611964848285016118f0565b91505092915050565b6000806040838503121561198057600080fd5b600061198e858286016118db565b925050602061199f8582860161192f565b9150509250929050565b6000806000606084860312156119be57600080fd5b60006119cc86828701611905565b93505060206119dd8682870161192f565b92505060406119ee868287016118db565b9150509250925092565b600080600060608486031215611a0d57600080fd5b6000611a1b86828701611905565b9350506020611a2c8682870161192f565b9250506040611a3d8682870161192f565b9150509250925092565b60008060008060808587031215611a5d57600080fd5b6000611a6b87828801611905565b9450506020611a7c8782880161192f565b9350506040611a8d8782880161192f565b9250506060611a9e878288016118db565b91505092959194509250565b60008060408385031215611abd57600080fd5b6000611acb8582860161191a565b9250506020611adc8582860161192f565b9150509250929050565b600060208284031215611af857600080fd5b6000611b068482850161192f565b91505092915050565b60008060408385031215611b2257600080fd5b6000611b308582860161192f565b9250506020611b41858286016118db565b9150509250929050565b60008060408385031215611b5e57600080fd5b6000611b6c8582860161192f565b9250506020611b7d8582860161192f565b9150509250929050565b611b9081611fbf565b82525050565b611b9f81611fad565b82525050565b611bae81611fd1565b82525050565b611bbd8161202b565b82525050565b611bcc8161204f565b82525050565b6000611bdf603283611f12565b9150611bea826120eb565b604082019050919050565b6000611c02601583611f12565b9150611c0d8261213a565b602082019050919050565b6000611c25601f83611f12565b9150611c3082612163565b602082019050919050565b6000611c48601683611f12565b9150611c538261218c565b602082019050919050565b611c6781612021565b82525050565b6000602082019050611c826000830184611b96565b92915050565b6000602082019050611c9d6000830184611b87565b92915050565b6000606082019050611cb86000830186611b96565b611cc56020830185611b96565b611cd26040830184611c5e565b949350505050565b6000602082019050611cef6000830184611ba5565b92915050565b60006020820190508181036000830152611d0e81611bd2565b9050919050565b60006020820190508181036000830152611d2e81611bf5565b9050919050565b60006020820190508181036000830152611d4e81611c18565b9050919050565b60006020820190508181036000830152611d6e81611c3b565b9050919050565b6000602082019050611d8a6000830184611c5e565b92915050565b6000604082019050611da56000830185611c5e565b611db26020830184611b96565b9392505050565b6000608082019050611dce6000830187611c5e565b611ddb6020830186611bb4565b611de86040830185611c5e565b611df56060830184611b87565b95945050505050565b6000606082019050611e136000830186611c5e565b611e206020830185611bc3565b611e2d6040830184611b96565b949350505050565b6000608082019050611e4a6000830187611c5e565b611e576020830186611c5e565b611e646040830185611b96565b611e716060830184611b96565b95945050505050565b6000608082019050611e8f6000830187611c5e565b611e9c6020830186611c5e565b611ea96040830185611c5e565b611eb66060830184611b96565b95945050505050565b600060a082019050611ed46000830188611c5e565b611ee16020830187611c5e565b611eee6040830186611c5e565b611efb6060830185611b96565b611f086080830184611b96565b9695505050505050565b600082825260208201905092915050565b6000611f2e82612021565b9150611f3983612021565b9250827fffffffffffffffffffffffffffffffffffffffffffffffffffffffffffffffff03821115611f6e57611f6d6120bc565b5b828201905092915050565b6000611f8482612021565b9150611f8f83612021565b925082821015611fa257611fa16120bc565b5b828203905092915050565b6000611fb882612001565b9050919050565b6000611fca82612001565b9050919050565b60008115159050919050565b6000611fe882611fad565b9050919050565b6000611ffa82611fad565b9050919050565b600073ffffffffffffffffffffffffffffffffffffffff82169050919050565b6000819050919050565b60006120368261203d565b9050919050565b600061204882612001565b9050919050565b600061205a82612061565b9050919050565b600061206c82612001565b9050919050565b600061207e82612021565b91507fffffffffffffffffffffffffffffffffffffffffffffffffffffffffffffffff8214156120b1576120b06120bc565b5b600182019050919050565b7f4e487b7100000000000000000000000000000000000000000000000000000000600052601160045260246000fd5b7f455243353131343a207472616e736665722063616c6c6572206973206e6f742060008201527f6f776e6572206e6f7220617070726f7665640000000000000000000000000000602082015250565b7f496e76616c696420534254204964206e756d6265720000000000000000000000600082015250565b7f5265656e7472616e637947756172643a207265656e7472616e742063616c6c00600082015250565b7f496e76616c696420536f756c204944206e756d62657200000000000000000000600082015250565b6121be81611fad565b81146121c957600080fd5b50565b6121d581611fdd565b81146121e057600080fd5b50565b6121ec81611fef565b81146121f757600080fd5b50565b61220381612021565b811461220e57600080fd5b5056fea264697066735822122098d27e22422b0b740893d3916185eccef647f4f1aba357884e4aaf28e8240f2564736f6c63430008040033",
  "linkReferences": {},
  "deployedLinkReferences": {}
}