{
  "_format": "hh-sol-artifact-1",
  "contractName": "Soul",
  "sourceName": "src/backend/contracts/Soul.sol",
  "abi": [
    {
      "inputs": [
        {
          "internalType": "string",
          "name": "_name",
          "type": "string"
        }
      ],
      "stateMutability": "nonpayable",
      "type": "constructor"
    },
    {
      "anonymous": false,
      "inputs": [
        {
          "indexed": false,
          "internalType": "uint256",
          "name": "soulId",
          "type": "uint256"
        },
        {
          "indexed": false,
          "internalType": "string",
          "name": "soulName",
          "type": "string"
        },
        {
          "indexed": true,
          "internalType": "address",
          "name": "owner",
          "type": "address"
        }
      ],
      "name": "CreatedSoul",
      "type": "event"
    },
    {
      "inputs": [
        {
          "internalType": "string",
          "name": "_soulName",
          "type": "string"
        }
      ],
      "name": "createSoul",
      "outputs": [
        {
          "internalType": "uint256",
          "name": "",
          "type": "uint256"
        }
      ],
      "stateMutability": "nonpayable",
      "type": "function"
    },
    {
      "inputs": [
        {
          "internalType": "uint256",
          "name": "_soulId",
          "type": "uint256"
        }
      ],
      "name": "getOwner",
      "outputs": [
        {
          "internalType": "address",
          "name": "",
          "type": "address"
        }
      ],
      "stateMutability": "view",
      "type": "function"
    },
    {
      "inputs": [],
      "name": "getSoulContractName",
      "outputs": [
        {
          "internalType": "string",
          "name": "",
          "type": "string"
        }
      ],
      "stateMutability": "view",
      "type": "function"
    },
    {
      "inputs": [],
      "name": "getSoulCount",
      "outputs": [
        {
          "internalType": "uint256",
          "name": "",
          "type": "uint256"
        }
      ],
      "stateMutability": "view",
      "type": "function"
    },
    {
      "inputs": [
        {
          "internalType": "uint256",
          "name": "_soulId",
          "type": "uint256"
        }
      ],
      "name": "getSoulName",
      "outputs": [
        {
          "internalType": "string",
          "name": "",
          "type": "string"
        }
      ],
      "stateMutability": "view",
      "type": "function"
    },
    {
      "inputs": [],
      "name": "soulCount",
      "outputs": [
        {
          "internalType": "uint256",
          "name": "",
          "type": "uint256"
        }
      ],
      "stateMutability": "view",
      "type": "function"
    }
  ],
  "bytecode": "0x60806040523480156200001157600080fd5b5060405162000bff38038062000bff833981810160405281019062000037919062000181565b60016000819055508060029080519060200190620000579291906200005f565b505062000336565b8280546200006d906200025b565b90600052602060002090601f016020900481019282620000915760008555620000dd565b82601f10620000ac57805160ff1916838001178555620000dd565b82800160010185558215620000dd579182015b82811115620000dc578251825591602001919060010190620000bf565b5b509050620000ec9190620000f0565b5090565b5b808211156200010b576000816000905550600101620000f1565b5090565b6000620001266200012084620001ef565b620001c6565b9050828152602081018484840111156200013f57600080fd5b6200014c84828562000225565b509392505050565b600082601f8301126200016657600080fd5b8151620001788482602086016200010f565b91505092915050565b6000602082840312156200019457600080fd5b600082015167ffffffffffffffff811115620001af57600080fd5b620001bd8482850162000154565b91505092915050565b6000620001d2620001e5565b9050620001e0828262000291565b919050565b6000604051905090565b600067ffffffffffffffff8211156200020d576200020c620002f6565b5b620002188262000325565b9050602081019050919050565b60005b838110156200024557808201518184015260208101905062000228565b8381111562000255576000848401525b50505050565b600060028204905060018216806200027457607f821691505b602082108114156200028b576200028a620002c7565b5b50919050565b6200029c8262000325565b810181811067ffffffffffffffff82111715620002be57620002bd620002f6565b5b80604052505050565b7f4e487b7100000000000000000000000000000000000000000000000000000000600052602260045260246000fd5b7f4e487b7100000000000000000000000000000000000000000000000000000000600052604160045260246000fd5b6000601f19601f8301169050919050565b6108b980620003466000396000f3fe608060405234801561001057600080fd5b50600436106100625760003560e01c8063314d0669146100675780633be06d21146100855780633e548436146100b55780634b0c5dbd146100d35780636e2456a714610103578063c41a360a14610121575b600080fd5b61006f610151565b60405161007c91906105c5565b60405180910390f35b61009f600480360381019061009a91906104e9565b6101e3565b6040516100ac91906105e7565b60405180910390f35b6100bd6102d7565b6040516100ca91906105e7565b60405180910390f35b6100ed60048036038101906100e8919061052a565b6102e1565b6040516100fa91906105c5565b60405180910390f35b61010b610386565b60405161011891906105e7565b60405180910390f35b61013b6004803603810190610136919061052a565b61038c565b60405161014891906105aa565b60405180910390f35b60606002805461016090610722565b80601f016020809104026020016040519081016040528092919081815260200182805461018c90610722565b80156101d95780601f106101ae576101008083540402835291602001916101d9565b820191906000526020600020905b8154815290600101906020018083116101bc57829003601f168201915b5050505050905090565b6000600160008154809291906101f890610785565b91905055503360036000600154815260200190815260200160002060006101000a81548173ffffffffffffffffffffffffffffffffffffffff021916908373ffffffffffffffffffffffffffffffffffffffff16021790555081600460006001548152602001908152602001600020908051906020019061027a9291906103c9565b503373ffffffffffffffffffffffffffffffffffffffff167f788e43545802131a64106390fdf226f847b40a93437883db529e551d5ec4c068600154846040516102c5929190610602565b60405180910390a26001549050919050565b6000600154905090565b606060046000838152602001908152602001600020805461030190610722565b80601f016020809104026020016040519081016040528092919081815260200182805461032d90610722565b801561037a5780601f1061034f5761010080835404028352916020019161037a565b820191906000526020600020905b81548152906001019060200180831161035d57829003601f168201915b50505050509050919050565b60015481565b60006003600083815260200190815260200160002060009054906101000a900473ffffffffffffffffffffffffffffffffffffffff169050919050565b8280546103d590610722565b90600052602060002090601f0160209004810192826103f7576000855561043e565b82601f1061041057805160ff191683800117855561043e565b8280016001018555821561043e579182015b8281111561043d578251825591602001919060010190610422565b5b50905061044b919061044f565b5090565b5b80821115610468576000816000905550600101610450565b5090565b600061047f61047a84610657565b610632565b90508281526020810184848401111561049757600080fd5b6104a28482856106e0565b509392505050565b600082601f8301126104bb57600080fd5b81356104cb84826020860161046c565b91505092915050565b6000813590506104e38161086c565b92915050565b6000602082840312156104fb57600080fd5b600082013567ffffffffffffffff81111561051557600080fd5b610521848285016104aa565b91505092915050565b60006020828403121561053c57600080fd5b600061054a848285016104d4565b91505092915050565b61055c816106a4565b82525050565b600061056d82610688565b6105778185610693565b93506105878185602086016106ef565b6105908161085b565b840191505092915050565b6105a4816106d6565b82525050565b60006020820190506105bf6000830184610553565b92915050565b600060208201905081810360008301526105df8184610562565b905092915050565b60006020820190506105fc600083018461059b565b92915050565b6000604082019050610617600083018561059b565b81810360208301526106298184610562565b90509392505050565b600061063c61064d565b90506106488282610754565b919050565b6000604051905090565b600067ffffffffffffffff8211156106725761067161082c565b5b61067b8261085b565b9050602081019050919050565b600081519050919050565b600082825260208201905092915050565b60006106af826106b6565b9050919050565b600073ffffffffffffffffffffffffffffffffffffffff82169050919050565b6000819050919050565b82818337600083830152505050565b60005b8381101561070d5780820151818401526020810190506106f2565b8381111561071c576000848401525b50505050565b6000600282049050600182168061073a57607f821691505b6020821081141561074e5761074d6107fd565b5b50919050565b61075d8261085b565b810181811067ffffffffffffffff8211171561077c5761077b61082c565b5b80604052505050565b6000610790826106d6565b91507fffffffffffffffffffffffffffffffffffffffffffffffffffffffffffffffff8214156107c3576107c26107ce565b5b600182019050919050565b7f4e487b7100000000000000000000000000000000000000000000000000000000600052601160045260246000fd5b7f4e487b7100000000000000000000000000000000000000000000000000000000600052602260045260246000fd5b7f4e487b7100000000000000000000000000000000000000000000000000000000600052604160045260246000fd5b6000601f19601f8301169050919050565b610875816106d6565b811461088057600080fd5b5056fea264697066735822122027cc952960650fdfed311994f5b1d8a13e2659e7fadf72ef40764250f67b933264736f6c63430008040033",
  "linkReferences": {},
  "deployedLinkReferences": {}
}