{
  "_format": "hh-sol-artifact-1",
  "contractName": "Soul",
  "sourceName": "src/backend/contracts/Soul.sol",
  "abi": [
    {
      "inputs": [
        {
          "internalType": "string",
          "name": "_name",
          "type": "string"
        }
      ],
      "stateMutability": "nonpayable",
      "type": "constructor"
    },
    {
      "anonymous": false,
      "inputs": [
        {
          "indexed": false,
          "internalType": "uint256",
          "name": "soulId",
          "type": "uint256"
        },
        {
          "indexed": false,
          "internalType": "string",
          "name": "soulName",
          "type": "string"
        },
        {
          "indexed": true,
          "internalType": "address",
          "name": "owner",
          "type": "address"
        }
      ],
      "name": "CreatedSoul",
      "type": "event"
    },
    {
      "inputs": [
        {
          "internalType": "uint256",
          "name": "",
          "type": "uint256"
        }
      ],
      "name": "_owners",
      "outputs": [
        {
          "internalType": "address",
          "name": "",
          "type": "address"
        }
      ],
      "stateMutability": "view",
      "type": "function"
    },
    {
      "inputs": [
        {
          "internalType": "uint256",
          "name": "",
          "type": "uint256"
        }
      ],
      "name": "_soulNames",
      "outputs": [
        {
          "internalType": "string",
          "name": "",
          "type": "string"
        }
      ],
      "stateMutability": "view",
      "type": "function"
    },
    {
      "inputs": [
        {
          "internalType": "string",
          "name": "_soulName",
          "type": "string"
        }
      ],
      "name": "createSoul",
      "outputs": [
        {
          "internalType": "uint256",
          "name": "",
          "type": "uint256"
        }
      ],
      "stateMutability": "nonpayable",
      "type": "function"
    },
    {
      "inputs": [
        {
          "internalType": "uint256",
          "name": "_soulId",
          "type": "uint256"
        }
      ],
      "name": "getOwner",
      "outputs": [
        {
          "internalType": "address",
          "name": "",
          "type": "address"
        }
      ],
      "stateMutability": "view",
      "type": "function"
    },
    {
      "inputs": [],
      "name": "getSoulContractName",
      "outputs": [
        {
          "internalType": "string",
          "name": "",
          "type": "string"
        }
      ],
      "stateMutability": "view",
      "type": "function"
    },
    {
      "inputs": [],
      "name": "getSoulCount",
      "outputs": [
        {
          "internalType": "uint256",
          "name": "",
          "type": "uint256"
        }
      ],
      "stateMutability": "view",
      "type": "function"
    },
    {
      "inputs": [
        {
          "internalType": "uint256",
          "name": "_soulId",
          "type": "uint256"
        }
      ],
      "name": "getSoulName",
      "outputs": [
        {
          "internalType": "string",
          "name": "",
          "type": "string"
        }
      ],
      "stateMutability": "view",
      "type": "function"
    },
    {
      "inputs": [],
      "name": "soulCount",
      "outputs": [
        {
          "internalType": "uint256",
          "name": "",
          "type": "uint256"
        }
      ],
      "stateMutability": "view",
      "type": "function"
    }
  ],
  "bytecode": "0x60806040523480156200001157600080fd5b5060405162000d5838038062000d58833981810160405281019062000037919062000181565b60016000819055508060029080519060200190620000579291906200005f565b505062000336565b8280546200006d906200025b565b90600052602060002090601f016020900481019282620000915760008555620000dd565b82601f10620000ac57805160ff1916838001178555620000dd565b82800160010185558215620000dd579182015b82811115620000dc578251825591602001919060010190620000bf565b5b509050620000ec9190620000f0565b5090565b5b808211156200010b576000816000905550600101620000f1565b5090565b6000620001266200012084620001ef565b620001c6565b9050828152602081018484840111156200013f57600080fd5b6200014c84828562000225565b509392505050565b600082601f8301126200016657600080fd5b8151620001788482602086016200010f565b91505092915050565b6000602082840312156200019457600080fd5b600082015167ffffffffffffffff811115620001af57600080fd5b620001bd8482850162000154565b91505092915050565b6000620001d2620001e5565b9050620001e0828262000291565b919050565b6000604051905090565b600067ffffffffffffffff8211156200020d576200020c620002f6565b5b620002188262000325565b9050602081019050919050565b60005b838110156200024557808201518184015260208101905062000228565b8381111562000255576000848401525b50505050565b600060028204905060018216806200027457607f821691505b602082108114156200028b576200028a620002c7565b5b50919050565b6200029c8262000325565b810181811067ffffffffffffffff82111715620002be57620002bd620002f6565b5b80604052505050565b7f4e487b7100000000000000000000000000000000000000000000000000000000600052602260045260246000fd5b7f4e487b7100000000000000000000000000000000000000000000000000000000600052604160045260246000fd5b6000601f19601f8301169050919050565b610a1280620003466000396000f3fe608060405234801561001057600080fd5b50600436106100885760003560e01c80634b0c5dbd1161005b5780634b0c5dbd146101295780636e2456a714610159578063992924a614610177578063c41a360a146101a757610088565b8063154e27a71461008d578063314d0669146100bd5780633be06d21146100db5780633e5484361461010b575b600080fd5b6100a760048036038101906100a29190610683565b6101d7565b6040516100b4919061071e565b60405180910390f35b6100c5610277565b6040516100d2919061071e565b60405180910390f35b6100f560048036038101906100f09190610642565b610309565b6040516101029190610740565b60405180910390f35b6101136103fd565b6040516101209190610740565b60405180910390f35b610143600480360381019061013e9190610683565b610407565b604051610150919061071e565b60405180910390f35b6101616104ac565b60405161016e9190610740565b60405180910390f35b610191600480360381019061018c9190610683565b6104b2565b60405161019e9190610703565b60405180910390f35b6101c160048036038101906101bc9190610683565b6104e5565b6040516101ce9190610703565b60405180910390f35b600460205280600052604060002060009150905080546101f69061087b565b80601f01602080910402602001604051908101604052809291908181526020018280546102229061087b565b801561026f5780601f106102445761010080835404028352916020019161026f565b820191906000526020600020905b81548152906001019060200180831161025257829003601f168201915b505050505081565b6060600280546102869061087b565b80601f01602080910402602001604051908101604052809291908181526020018280546102b29061087b565b80156102ff5780601f106102d4576101008083540402835291602001916102ff565b820191906000526020600020905b8154815290600101906020018083116102e257829003601f168201915b5050505050905090565b60006001600081548092919061031e906108de565b91905055503360036000600154815260200190815260200160002060006101000a81548173ffffffffffffffffffffffffffffffffffffffff021916908373ffffffffffffffffffffffffffffffffffffffff1602179055508160046000600154815260200190815260200160002090805190602001906103a0929190610522565b503373ffffffffffffffffffffffffffffffffffffffff167f788e43545802131a64106390fdf226f847b40a93437883db529e551d5ec4c068600154846040516103eb92919061075b565b60405180910390a26001549050919050565b6000600154905090565b60606004600083815260200190815260200160002080546104279061087b565b80601f01602080910402602001604051908101604052809291908181526020018280546104539061087b565b80156104a05780601f10610475576101008083540402835291602001916104a0565b820191906000526020600020905b81548152906001019060200180831161048357829003601f168201915b50505050509050919050565b60015481565b60036020528060005260406000206000915054906101000a900473ffffffffffffffffffffffffffffffffffffffff1681565b60006003600083815260200190815260200160002060009054906101000a900473ffffffffffffffffffffffffffffffffffffffff169050919050565b82805461052e9061087b565b90600052602060002090601f0160209004810192826105505760008555610597565b82601f1061056957805160ff1916838001178555610597565b82800160010185558215610597579182015b8281111561059657825182559160200191906001019061057b565b5b5090506105a491906105a8565b5090565b5b808211156105c15760008160009055506001016105a9565b5090565b60006105d86105d3846107b0565b61078b565b9050828152602081018484840111156105f057600080fd5b6105fb848285610839565b509392505050565b600082601f83011261061457600080fd5b81356106248482602086016105c5565b91505092915050565b60008135905061063c816109c5565b92915050565b60006020828403121561065457600080fd5b600082013567ffffffffffffffff81111561066e57600080fd5b61067a84828501610603565b91505092915050565b60006020828403121561069557600080fd5b60006106a38482850161062d565b91505092915050565b6106b5816107fd565b82525050565b60006106c6826107e1565b6106d081856107ec565b93506106e0818560208601610848565b6106e9816109b4565b840191505092915050565b6106fd8161082f565b82525050565b600060208201905061071860008301846106ac565b92915050565b6000602082019050818103600083015261073881846106bb565b905092915050565b600060208201905061075560008301846106f4565b92915050565b600060408201905061077060008301856106f4565b818103602083015261078281846106bb565b90509392505050565b60006107956107a6565b90506107a182826108ad565b919050565b6000604051905090565b600067ffffffffffffffff8211156107cb576107ca610985565b5b6107d4826109b4565b9050602081019050919050565b600081519050919050565b600082825260208201905092915050565b60006108088261080f565b9050919050565b600073ffffffffffffffffffffffffffffffffffffffff82169050919050565b6000819050919050565b82818337600083830152505050565b60005b8381101561086657808201518184015260208101905061084b565b83811115610875576000848401525b50505050565b6000600282049050600182168061089357607f821691505b602082108114156108a7576108a6610956565b5b50919050565b6108b6826109b4565b810181811067ffffffffffffffff821117156108d5576108d4610985565b5b80604052505050565b60006108e98261082f565b91507fffffffffffffffffffffffffffffffffffffffffffffffffffffffffffffffff82141561091c5761091b610927565b5b600182019050919050565b7f4e487b7100000000000000000000000000000000000000000000000000000000600052601160045260246000fd5b7f4e487b7100000000000000000000000000000000000000000000000000000000600052602260045260246000fd5b7f4e487b7100000000000000000000000000000000000000000000000000000000600052604160045260246000fd5b6000601f19601f8301169050919050565b6109ce8161082f565b81146109d957600080fd5b5056fea26469706673582212207b16a0444af4898b7e09ce1de30b2e695143f7909327c901bf68fb8fba47af9b64736f6c63430008040033",
  "linkReferences": {},
  "deployedLinkReferences": {}
}