{
  "_format": "hh-sol-artifact-1",
  "contractName": "SoulHub",
  "sourceName": "src/backend/contracts/SoulHub.sol",
  "abi": [
    {
      "inputs": [
        {
          "internalType": "uint256",
          "name": "_fee",
          "type": "uint256"
        }
      ],
      "stateMutability": "nonpayable",
      "type": "constructor"
    },
    {
      "anonymous": false,
      "inputs": [
        {
          "indexed": false,
          "internalType": "uint256",
          "name": "sbtId",
          "type": "uint256"
        },
        {
          "indexed": true,
          "internalType": "address",
          "name": "sbt",
          "type": "address"
        },
        {
          "indexed": false,
          "internalType": "uint256",
          "name": "sbtItemId",
          "type": "uint256"
        },
        {
          "indexed": false,
          "internalType": "address",
          "name": "owner",
          "type": "address"
        },
        {
          "indexed": false,
          "internalType": "address",
          "name": "receiver",
          "type": "address"
        }
      ],
      "name": "AccessGranted",
      "type": "event"
    },
    {
      "anonymous": false,
      "inputs": [
        {
          "indexed": false,
          "internalType": "uint256",
          "name": "sbtId",
          "type": "uint256"
        },
        {
          "indexed": true,
          "internalType": "address",
          "name": "sbt",
          "type": "address"
        },
        {
          "indexed": false,
          "internalType": "uint256",
          "name": "sbtItemId",
          "type": "uint256"
        },
        {
          "indexed": false,
          "internalType": "address",
          "name": "owner",
          "type": "address"
        },
        {
          "indexed": false,
          "internalType": "address",
          "name": "receiver",
          "type": "address"
        }
      ],
      "name": "AccessRevoked",
      "type": "event"
    },
    {
      "anonymous": false,
      "inputs": [
        {
          "indexed": false,
          "internalType": "uint256",
          "name": "soulId",
          "type": "uint256"
        },
        {
          "indexed": true,
          "internalType": "address",
          "name": "soul",
          "type": "address"
        },
        {
          "indexed": false,
          "internalType": "address",
          "name": "minter",
          "type": "address"
        }
      ],
      "name": "CreatedSoul",
      "type": "event"
    },
    {
      "anonymous": false,
      "inputs": [
        {
          "indexed": false,
          "internalType": "uint256",
          "name": "balance",
          "type": "uint256"
        }
      ],
      "name": "LogBalance",
      "type": "event"
    },
    {
      "anonymous": false,
      "inputs": [
        {
          "indexed": false,
          "internalType": "address",
          "name": "feeAccount",
          "type": "address"
        }
      ],
      "name": "LogFeeAccount",
      "type": "event"
    },
    {
      "anonymous": false,
      "inputs": [
        {
          "indexed": false,
          "internalType": "string",
          "name": "message",
          "type": "string"
        },
        {
          "indexed": false,
          "internalType": "address",
          "name": "feeAccountAddress",
          "type": "address"
        }
      ],
      "name": "LogMessage",
      "type": "event"
    },
    {
      "anonymous": false,
      "inputs": [
        {
          "indexed": false,
          "internalType": "uint256",
          "name": "sbtId",
          "type": "uint256"
        },
        {
          "indexed": true,
          "internalType": "address",
          "name": "sbt",
          "type": "address"
        },
        {
          "indexed": false,
          "internalType": "uint256",
          "name": "sbtItemId",
          "type": "uint256"
        },
        {
          "indexed": false,
          "internalType": "uint256",
          "name": "soulId",
          "type": "uint256"
        },
        {
          "indexed": false,
          "internalType": "address",
          "name": "minter",
          "type": "address"
        }
      ],
      "name": "Offered",
      "type": "event"
    },
    {
      "anonymous": false,
      "inputs": [
        {
          "indexed": false,
          "internalType": "uint256",
          "name": "sbtId",
          "type": "uint256"
        },
        {
          "indexed": true,
          "internalType": "address",
          "name": "sbt",
          "type": "address"
        },
        {
          "indexed": false,
          "internalType": "uint256",
          "name": "sbtItemId",
          "type": "uint256"
        },
        {
          "indexed": false,
          "internalType": "uint256",
          "name": "soulId",
          "type": "uint256"
        },
        {
          "indexed": false,
          "internalType": "address",
          "name": "minter",
          "type": "address"
        },
        {
          "indexed": false,
          "internalType": "address",
          "name": "mintee",
          "type": "address"
        }
      ],
      "name": "Received",
      "type": "event"
    },
    {
      "inputs": [
        {
          "internalType": "address",
          "name": "",
          "type": "address"
        },
        {
          "internalType": "uint256",
          "name": "",
          "type": "uint256"
        }
      ],
      "name": "_activeSBTs",
      "outputs": [
        {
          "internalType": "uint256",
          "name": "",
          "type": "uint256"
        }
      ],
      "stateMutability": "view",
      "type": "function"
    },
    {
      "inputs": [
        {
          "internalType": "uint256",
          "name": "",
          "type": "uint256"
        },
        {
          "internalType": "uint256",
          "name": "",
          "type": "uint256"
        }
      ],
      "name": "_permittedUsers",
      "outputs": [
        {
          "internalType": "address",
          "name": "",
          "type": "address"
        }
      ],
      "stateMutability": "view",
      "type": "function"
    },
    {
      "inputs": [
        {
          "internalType": "uint256",
          "name": "",
          "type": "uint256"
        }
      ],
      "name": "_sbtItems",
      "outputs": [
        {
          "internalType": "uint256",
          "name": "tokenId",
          "type": "uint256"
        },
        {
          "internalType": "contract SBT",
          "name": "sbt",
          "type": "address"
        },
        {
          "internalType": "uint256",
          "name": "soulItemId",
          "type": "uint256"
        },
        {
          "internalType": "address payable",
          "name": "minter",
          "type": "address"
        }
      ],
      "stateMutability": "view",
      "type": "function"
    },
    {
      "inputs": [
        {
          "internalType": "uint256",
          "name": "",
          "type": "uint256"
        }
      ],
      "name": "_soulContentCount",
      "outputs": [
        {
          "internalType": "uint256",
          "name": "",
          "type": "uint256"
        }
      ],
      "stateMutability": "view",
      "type": "function"
    },
    {
      "inputs": [
        {
          "internalType": "uint256",
          "name": "",
          "type": "uint256"
        }
      ],
      "name": "_soulItems",
      "outputs": [
        {
          "internalType": "uint256",
          "name": "soulId",
          "type": "uint256"
        },
        {
          "internalType": "contract Soul",
          "name": "soul",
          "type": "address"
        },
        {
          "internalType": "address",
          "name": "minter",
          "type": "address"
        }
      ],
      "stateMutability": "view",
      "type": "function"
    },
    {
      "inputs": [
        {
          "internalType": "uint256",
          "name": "_sbtId",
          "type": "uint256"
        },
        {
          "internalType": "address",
          "name": "_user",
          "type": "address"
        }
      ],
      "name": "checkAccess",
      "outputs": [
        {
          "internalType": "bool",
          "name": "",
          "type": "bool"
        }
      ],
      "stateMutability": "view",
      "type": "function"
    },
    {
      "inputs": [
        {
          "internalType": "contract SBT",
          "name": "_sbt",
          "type": "address"
        },
        {
          "internalType": "uint256",
          "name": "_sbtId",
          "type": "uint256"
        },
        {
          "internalType": "uint256",
          "name": "_soulId",
          "type": "uint256"
        }
      ],
      "name": "createSBTItem",
      "outputs": [],
      "stateMutability": "nonpayable",
      "type": "function"
    },
    {
      "inputs": [
        {
          "internalType": "contract SBT",
          "name": "_sbt",
          "type": "address"
        },
        {
          "internalType": "uint256",
          "name": "_sbtId",
          "type": "uint256"
        },
        {
          "internalType": "uint256",
          "name": "_soulId",
          "type": "uint256"
        },
        {
          "internalType": "address",
          "name": "_mintee",
          "type": "address"
        }
      ],
      "name": "createSBTItemFor",
      "outputs": [],
      "stateMutability": "nonpayable",
      "type": "function"
    },
    {
      "inputs": [
        {
          "internalType": "contract Soul",
          "name": "_soul",
          "type": "address"
        },
        {
          "internalType": "uint256",
          "name": "_soulId",
          "type": "uint256"
        }
      ],
      "name": "createSoulItem",
      "outputs": [],
      "stateMutability": "nonpayable",
      "type": "function"
    },
    {
      "inputs": [],
      "name": "fee",
      "outputs": [
        {
          "internalType": "uint256",
          "name": "",
          "type": "uint256"
        }
      ],
      "stateMutability": "view",
      "type": "function"
    },
    {
      "inputs": [],
      "name": "feeAccount",
      "outputs": [
        {
          "internalType": "address payable",
          "name": "",
          "type": "address"
        }
      ],
      "stateMutability": "view",
      "type": "function"
    },
    {
      "inputs": [],
      "name": "getBalance",
      "outputs": [
        {
          "internalType": "uint256",
          "name": "",
          "type": "uint256"
        }
      ],
      "stateMutability": "view",
      "type": "function"
    },
    {
      "inputs": [],
      "name": "getDeployer",
      "outputs": [
        {
          "internalType": "address",
          "name": "",
          "type": "address"
        }
      ],
      "stateMutability": "view",
      "type": "function"
    },
    {
      "inputs": [
        {
          "internalType": "uint256",
          "name": "_soulId",
          "type": "uint256"
        }
      ],
      "name": "getSoulContentCount",
      "outputs": [
        {
          "internalType": "uint256",
          "name": "",
          "type": "uint256"
        }
      ],
      "stateMutability": "view",
      "type": "function"
    },
    {
      "inputs": [
        {
          "internalType": "contract SBT",
          "name": "_sbt",
          "type": "address"
        },
        {
          "internalType": "uint256",
          "name": "_sbtId",
          "type": "uint256"
        },
        {
          "internalType": "address",
          "name": "_to",
          "type": "address"
        }
      ],
      "name": "grantAccess",
      "outputs": [],
      "stateMutability": "nonpayable",
      "type": "function"
    },
    {
      "inputs": [
        {
          "internalType": "address",
          "name": "_addr",
          "type": "address"
        }
      ],
      "name": "isContract",
      "outputs": [
        {
          "internalType": "bool",
          "name": "",
          "type": "bool"
        }
      ],
      "stateMutability": "view",
      "type": "function"
    },
    {
      "inputs": [
        {
          "internalType": "address",
          "name": "addr",
          "type": "address"
        }
      ],
      "name": "isEthereumAddress",
      "outputs": [
        {
          "internalType": "bool",
          "name": "",
          "type": "bool"
        }
      ],
      "stateMutability": "view",
      "type": "function"
    },
    {
      "inputs": [],
      "name": "notDeployer",
      "outputs": [],
      "stateMutability": "view",
      "type": "function"
    },
    {
      "inputs": [
        {
          "internalType": "contract SBT",
          "name": "_sbt",
          "type": "address"
        },
        {
          "internalType": "uint256",
          "name": "_sbtId",
          "type": "uint256"
        },
        {
          "internalType": "address",
          "name": "_user",
          "type": "address"
        }
      ],
      "name": "revokeAccess",
      "outputs": [],
      "stateMutability": "nonpayable",
      "type": "function"
    },
    {
      "inputs": [],
      "name": "sbtItemCount",
      "outputs": [
        {
          "internalType": "uint256",
          "name": "",
          "type": "uint256"
        }
      ],
      "stateMutability": "view",
      "type": "function"
    },
    {
      "inputs": [],
      "name": "soulItemCount",
      "outputs": [
        {
          "internalType": "uint256",
          "name": "",
          "type": "uint256"
        }
      ],
      "stateMutability": "view",
      "type": "function"
    },
    {
      "inputs": [],
      "name": "transferGas",
      "outputs": [],
      "stateMutability": "payable",
      "type": "function"
    },
    {
      "inputs": [],
      "name": "transferGass",
      "outputs": [],
      "stateMutability": "payable",
      "type": "function"
    }
  ],
  "bytecode": "0x60c06040523480156200001157600080fd5b5060405162002afc38038062002afc83398181016040528101906200003791906200009c565b60016000819055503373ffffffffffffffffffffffffffffffffffffffff1660808173ffffffffffffffffffffffffffffffffffffffff1660601b815250508060a0818152505050620000ec565b6000815190506200009681620000d2565b92915050565b600060208284031215620000af57600080fd5b6000620000bf8482850162000085565b91505092915050565b6000819050919050565b620000dd81620000c8565b8114620000e957600080fd5b50565b60805160601c60a0516129c4620001386000396000818161188f015281816119e301528181611cb80152611d5c015260008181610f8501528181610fab015261133c01526129c46000f3fe6080604052600436106101405760003560e01c8063836081eb116100b6578063d39068da1161006f578063d39068da1461049b578063d6096750146104d8578063ddca3f4314610501578063eb6459ff1461052c578063f1f8cad714610536578063fa03f7971461055f57610140565b8063836081eb146103655780638f597e491461038e5780639d02fa6e146103a5578063a1d35da4146103e4578063d13c870314610421578063d2dcdfb81461045e57610140565b8063438826071161010857806343882607146102435780634c909c951461026c5780634fb3aad71461029557806365e17c9d146102d257806372630531146102fd57806382039e251461032857610140565b806312065fe01461014557806316279055146101705780631c61454b146101ad5780631d6b3df7146101ed5780632c8da14614610218575b600080fd5b34801561015157600080fd5b5061015a610569565b60405161016791906123dc565b60405180910390f35b34801561017c57600080fd5b5061019760048036038101906101929190611e76565b610588565b6040516101a491906122c1565b60405180910390f35b3480156101b957600080fd5b506101d460048036038101906101cf9190612041565b61059b565b6040516101e49493929190612420565b60405180910390f35b3480156101f957600080fd5b5061020261060b565b60405161020f91906123dc565b60405180910390f35b34801561022457600080fd5b5061022d610611565b60405161023a91906123dc565b60405180910390f35b34801561024f57600080fd5b5061026a60048036038101906102659190611f53565b610617565b005b34801561027857600080fd5b50610293600480360381019061028e9190611f04565b61086c565b005b3480156102a157600080fd5b506102bc60048036038101906102b79190612041565b610f66565b6040516102c991906123dc565b60405180910390f35b3480156102de57600080fd5b506102e7610f83565b6040516102f4919061226f565b60405180910390f35b34801561030957600080fd5b50610312610fa7565b60405161031f9190612254565b60405180910390f35b34801561033457600080fd5b5061034f600480360381019061034a91906120a6565b610fcf565b60405161035c9190612254565b60405180910390f35b34801561037157600080fd5b5061038c60048036038101906103879190611fa2565b61101d565b005b34801561039a57600080fd5b506103a361133a565b005b3480156103b157600080fd5b506103cc60048036038101906103c79190612041565b6113cb565b6040516103db93929190612465565b60405180910390f35b3480156103f057600080fd5b5061040b60048036038101906104069190612041565b611435565b60405161041891906123dc565b60405180910390f35b34801561042d57600080fd5b506104486004803603810190610443919061206a565b61144d565b60405161045591906122c1565b60405180910390f35b34801561046a57600080fd5b5061048560048036038101906104809190611ec8565b611639565b60405161049291906123dc565b60405180910390f35b3480156104a757600080fd5b506104c260048036038101906104bd9190611e76565b61166a565b6040516104cf91906122c1565b60405180910390f35b3480156104e457600080fd5b506104ff60048036038101906104fa9190612005565b61167d565b005b34801561050d57600080fd5b5061051661188d565b60405161052391906123dc565b60405180910390f35b6105346118b1565b005b34801561054257600080fd5b5061055d60048036038101906105589190611f04565b611a33565b005b610567611cb4565b005b60003373ffffffffffffffffffffffffffffffffffffffff1631905090565b600080823b905060008111915050919050565b60046020528060005260406000206000915090508060000154908060010160009054906101000a900473ffffffffffffffffffffffffffffffffffffffff16908060020154908060030160009054906101000a900473ffffffffffffffffffffffffffffffffffffffff16905084565b60015481565b60025481565b6002600054141561065d576040517f08c379a00000000000000000000000000000000000000000000000000000000081526004016106549061239c565b60405180910390fd5b60026000819055506001600254610674919061258a565b82146106b5576040517f08c379a00000000000000000000000000000000000000000000000000000000081526004016106ac906122fc565b60405180910390fd5b600260008154809291906106c8906126da565b919050555060405180608001604052808381526020018473ffffffffffffffffffffffffffffffffffffffff16815260200160025481526020013373ffffffffffffffffffffffffffffffffffffffff168152506004600060025481526020019081526020016000206000820151816000015560208201518160010160006101000a81548173ffffffffffffffffffffffffffffffffffffffff021916908373ffffffffffffffffffffffffffffffffffffffff1602179055506040820151816002015560608201518160030160006101000a81548173ffffffffffffffffffffffffffffffffffffffff021916908373ffffffffffffffffffffffffffffffffffffffff16021790555090505060016005600083815260200190815260200160002060008282546107fa919061258a565b925050819055508273ffffffffffffffffffffffffffffffffffffffff167f655a0cf9c8db81512be9a76dc1c5ae5380b8816ce6ad659cd61b715e2999d59a83600254843360405161084f94939291906124e1565b60405180910390a261085f611cb4565b6001600081905550505050565b600260005414156108b2576040517f08c379a00000000000000000000000000000000000000000000000000000000081526004016108a99061239c565b60405180910390fd5b60026000819055503373ffffffffffffffffffffffffffffffffffffffff168373ffffffffffffffffffffffffffffffffffffffff16636352211e846040518263ffffffff1660e01b815260040161090a91906123dc565b60206040518083038186803b15801561092257600080fd5b505afa158015610936573d6000803e3d6000fd5b505050506040513d601f19601f8201168201806040525081019061095a9190611e9f565b73ffffffffffffffffffffffffffffffffffffffff16146109b0576040517f08c379a00000000000000000000000000000000000000000000000000000000081526004016109a7906122dc565b60405180910390fd5b60005b6006600084815260200190815260200160002080549050811015610c37578173ffffffffffffffffffffffffffffffffffffffff16600660008581526020019081526020016000208281548110610a33577f4e487b7100000000000000000000000000000000000000000000000000000000600052603260045260246000fd5b9060005260206000200160009054906101000a900473ffffffffffffffffffffffffffffffffffffffff1673ffffffffffffffffffffffffffffffffffffffff161415610c24576006600084815260200190815260200160002060016006600086815260200190815260200160002080549050610ab091906125e0565b81548110610ae7577f4e487b7100000000000000000000000000000000000000000000000000000000600052603260045260246000fd5b9060005260206000200160009054906101000a900473ffffffffffffffffffffffffffffffffffffffff16600660008581526020019081526020016000208281548110610b5d577f4e487b7100000000000000000000000000000000000000000000000000000000600052603260045260246000fd5b9060005260206000200160006101000a81548173ffffffffffffffffffffffffffffffffffffffff021916908373ffffffffffffffffffffffffffffffffffffffff16021790555060066000848152602001908152602001600020805480610bee577f4e487b7100000000000000000000000000000000000000000000000000000000600052603160045260246000fd5b6001900381819060005260206000200160006101000a81549073ffffffffffffffffffffffffffffffffffffffff021916905590555b8080610c2f906126da565b9150506109b3565b5060005b600760008373ffffffffffffffffffffffffffffffffffffffff1673ffffffffffffffffffffffffffffffffffffffff16815260200190815260200160002080549050811015610f025782600760008473ffffffffffffffffffffffffffffffffffffffff1673ffffffffffffffffffffffffffffffffffffffff1681526020019081526020016000208281548110610cfd577f4e487b7100000000000000000000000000000000000000000000000000000000600052603260045260246000fd5b90600052602060002001541415610eef57600760008373ffffffffffffffffffffffffffffffffffffffff1673ffffffffffffffffffffffffffffffffffffffff1681526020019081526020016000206001600760008573ffffffffffffffffffffffffffffffffffffffff1673ffffffffffffffffffffffffffffffffffffffff16815260200190815260200160002080549050610d9c91906125e0565b81548110610dd3577f4e487b7100000000000000000000000000000000000000000000000000000000600052603260045260246000fd5b9060005260206000200154600760008473ffffffffffffffffffffffffffffffffffffffff1673ffffffffffffffffffffffffffffffffffffffff1681526020019081526020016000208281548110610e55577f4e487b7100000000000000000000000000000000000000000000000000000000600052603260045260246000fd5b9060005260206000200181905550600760008373ffffffffffffffffffffffffffffffffffffffff1673ffffffffffffffffffffffffffffffffffffffff168152602001908152602001600020805480610ed8577f4e487b7100000000000000000000000000000000000000000000000000000000600052603160045260246000fd5b600190038181906000526020600020016000905590555b8080610efa906126da565b915050610c3b565b508273ffffffffffffffffffffffffffffffffffffffff167f51ae65be747682556f18eb2ee0f3929a33db715ebd3e667478532f8c11c2a632836002543385604051610f51949392919061249c565b60405180910390a26001600081905550505050565b600060056000838152602001908152602001600020549050919050565b7f000000000000000000000000000000000000000000000000000000000000000081565b60007f0000000000000000000000000000000000000000000000000000000000000000905090565b60066020528160005260406000208181548110610feb57600080fd5b906000526020600020016000915091509054906101000a900473ffffffffffffffffffffffffffffffffffffffff1681565b60026000541415611063576040517f08c379a000000000000000000000000000000000000000000000000000000000815260040161105a9061239c565b60405180910390fd5b6002600081905550600160025461107a919061258a565b83146110bb576040517f08c379a00000000000000000000000000000000000000000000000000000000081526004016110b2906122fc565b60405180910390fd5b600260008154809291906110ce906126da565b919050555060405180608001604052808481526020018573ffffffffffffffffffffffffffffffffffffffff16815260200160025481526020013373ffffffffffffffffffffffffffffffffffffffff168152506004600060025481526020019081526020016000206000820151816000015560208201518160010160006101000a81548173ffffffffffffffffffffffffffffffffffffffff021916908373ffffffffffffffffffffffffffffffffffffffff1602179055506040820151816002015560608201518160030160006101000a81548173ffffffffffffffffffffffffffffffffffffffff021916908373ffffffffffffffffffffffffffffffffffffffff1602179055509050506001600560008481526020019081526020016000206000828254611200919061258a565b925050819055508373ffffffffffffffffffffffffffffffffffffffff166323b872dd3383866040518463ffffffff1660e01b81526004016112449392919061228a565b600060405180830381600087803b15801561125e57600080fd5b505af1158015611272573d6000803e3d6000fd5b505050508373ffffffffffffffffffffffffffffffffffffffff167f655a0cf9c8db81512be9a76dc1c5ae5380b8816ce6ad659cd61b715e2999d59a8460025485336040516112c494939291906124e1565b60405180910390a28373ffffffffffffffffffffffffffffffffffffffff167f60c3af4bd3198369c53ddf46c7c73f57c3e7949c54c52b18187de1924bfd65a08460025485338660405161131c959493929190612526565b60405180910390a261132c611cb4565b600160008190555050505050565b7f000000000000000000000000000000000000000000000000000000000000000073ffffffffffffffffffffffffffffffffffffffff163373ffffffffffffffffffffffffffffffffffffffff1614156113c9576040517f08c379a00000000000000000000000000000000000000000000000000000000081526004016113c09061233c565b60405180910390fd5b565b60036020528060005260406000206000915090508060000154908060010160009054906101000a900473ffffffffffffffffffffffffffffffffffffffff16908060020160009054906101000a900473ffffffffffffffffffffffffffffffffffffffff16905083565b60056020528060005260406000206000915090505481565b6000806000905060005b6006600086815260200190815260200160002080549050811015611536578373ffffffffffffffffffffffffffffffffffffffff166006600087815260200190815260200160002082815481106114d7577f4e487b7100000000000000000000000000000000000000000000000000000000600052603260045260246000fd5b9060005260206000200160009054906101000a900473ffffffffffffffffffffffffffffffffffffffff1673ffffffffffffffffffffffffffffffffffffffff16141561152357600191505b808061152e906126da565b915050611457565b5060005b600760008573ffffffffffffffffffffffffffffffffffffffff1673ffffffffffffffffffffffffffffffffffffffff1681526020019081526020016000208054905081101561162e5784600760008673ffffffffffffffffffffffffffffffffffffffff1673ffffffffffffffffffffffffffffffffffffffff16815260200190815260200160002082815481106115fc577f4e487b7100000000000000000000000000000000000000000000000000000000600052603260045260246000fd5b9060005260206000200154141561161b57600180156116185750815b91505b8080611626906126da565b91505061153a565b508091505092915050565b6007602052816000526040600020818154811061165557600080fd5b90600052602060002001600091509150505481565b600061167582610588565b159050919050565b600260005414156116c3576040517f08c379a00000000000000000000000000000000000000000000000000000000081526004016116ba9061239c565b60405180910390fd5b6002600081905550600180546116d9919061258a565b811461171a576040517f08c379a0000000000000000000000000000000000000000000000000000000008152600401611711906123bc565b60405180910390fd5b6001600081548092919061172d906126da565b919050555060405180606001604052808281526020018373ffffffffffffffffffffffffffffffffffffffff1681526020013373ffffffffffffffffffffffffffffffffffffffff168152506003600060015481526020019081526020016000206000820151816000015560208201518160010160006101000a81548173ffffffffffffffffffffffffffffffffffffffff021916908373ffffffffffffffffffffffffffffffffffffffff16021790555060408201518160020160006101000a81548173ffffffffffffffffffffffffffffffffffffffff021916908373ffffffffffffffffffffffffffffffffffffffff1602179055509050508173ffffffffffffffffffffffffffffffffffffffff167f9957802590e9d40d57be33b4d37eecf5aff4900395a367c06461336d137547f382336040516118719291906123f7565b60405180910390a2611881611cb4565b60016000819055505050565b7f000000000000000000000000000000000000000000000000000000000000000081565b60006118bb610fa7565b905060006118c88261166a565b90508061190a576040517f08c379a00000000000000000000000000000000000000000000000000000000081526004016119019061237c565b60405180910390fd5b6000611914610569565b905060008111611959576040517f08c379a00000000000000000000000000000000000000000000000000000000081526004016119509061231c565b60405180910390fd5b7f8d9fc242eead7aebf4b509c32519beb6e2975a572c06310f797da4bd7f1ffab68160405161198891906123dc565b60405180910390a17fe4b4cd8bb291c5ad8b93c72ef1e0530b07826c523ffe48e687baf95d2f4b555b836040516119bf9190612254565b60405180910390a18273ffffffffffffffffffffffffffffffffffffffff166108fc7f00000000000000000000000000000000000000000000000000000000000000009081150290604051600060405180830381858888f19350505050158015611a2d573d6000803e3d6000fd5b50505050565b60026000541415611a79576040517f08c379a0000000000000000000000000000000000000000000000000000000008152600401611a709061239c565b60405180910390fd5b60026000819055503373ffffffffffffffffffffffffffffffffffffffff168373ffffffffffffffffffffffffffffffffffffffff16636352211e846040518263ffffffff1660e01b8152600401611ad191906123dc565b60206040518083038186803b158015611ae957600080fd5b505afa158015611afd573d6000803e3d6000fd5b505050506040513d601f19601f82011682018060405250810190611b219190611e9f565b73ffffffffffffffffffffffffffffffffffffffff1614611b77576040517f08c379a0000000000000000000000000000000000000000000000000000000008152600401611b6e906122dc565b60405180910390fd5b60066000838152602001908152602001600020819080600181540180825580915050600190039060005260206000200160009091909190916101000a81548173ffffffffffffffffffffffffffffffffffffffff021916908373ffffffffffffffffffffffffffffffffffffffff160217905550600760008273ffffffffffffffffffffffffffffffffffffffff1673ffffffffffffffffffffffffffffffffffffffff1681526020019081526020016000208290806001815401808255809150506001900390600052602060002001600090919091909150558273ffffffffffffffffffffffffffffffffffffffff167f877e3c9bad8c007a196b2e7625bcd65fe3fd14227894cba4dd96ab2c73fd738a836002543385604051611c9f949392919061249c565b60405180910390a26001600081905550505050565b60007f000000000000000000000000000000000000000000000000000000000000000011611d17576040517f08c379a0000000000000000000000000000000000000000000000000000000008152600401611d0e9061235c565b60405180910390fd5b611d1f61133a565b611d2f611d2a610fa7565b611dea565b15611dad576000611d3e610fa7565b90508073ffffffffffffffffffffffffffffffffffffffff166108fc7f00000000000000000000000000000000000000000000000000000000000000009081150290604051600060405180830381858888f19350505050158015611da6573d6000803e3d6000fd5b5050611de8565b6040517f08c379a0000000000000000000000000000000000000000000000000000000008152600401611ddf9061237c565b60405180910390fd5b565b6000808273ffffffffffffffffffffffffffffffffffffffff163b119050919050565b600081359050611e1c81612932565b92915050565b600081519050611e3181612932565b92915050565b600081359050611e4681612949565b92915050565b600081359050611e5b81612960565b92915050565b600081359050611e7081612977565b92915050565b600060208284031215611e8857600080fd5b6000611e9684828501611e0d565b91505092915050565b600060208284031215611eb157600080fd5b6000611ebf84828501611e22565b91505092915050565b60008060408385031215611edb57600080fd5b6000611ee985828601611e0d565b9250506020611efa85828601611e61565b9150509250929050565b600080600060608486031215611f1957600080fd5b6000611f2786828701611e37565b9350506020611f3886828701611e61565b9250506040611f4986828701611e0d565b9150509250925092565b600080600060608486031215611f6857600080fd5b6000611f7686828701611e37565b9350506020611f8786828701611e61565b9250506040611f9886828701611e61565b9150509250925092565b60008060008060808587031215611fb857600080fd5b6000611fc687828801611e37565b9450506020611fd787828801611e61565b9350506040611fe887828801611e61565b9250506060611ff987828801611e0d565b91505092959194509250565b6000806040838503121561201857600080fd5b600061202685828601611e4c565b925050602061203785828601611e61565b9150509250929050565b60006020828403121561205357600080fd5b600061206184828501611e61565b91505092915050565b6000806040838503121561207d57600080fd5b600061208b85828601611e61565b925050602061209c85828601611e0d565b9150509250929050565b600080604083850312156120b957600080fd5b60006120c785828601611e61565b92505060206120d885828601611e61565b9150509250929050565b6120eb81612626565b82525050565b6120fa81612614565b82525050565b61210981612638565b82525050565b61211881612692565b82525050565b612127816126b6565b82525050565b600061213a603283612579565b915061214582612752565b604082019050919050565b600061215d601583612579565b9150612168826127a1565b602082019050919050565b6000612180601383612579565b915061218b826127ca565b602082019050919050565b60006121a3602e83612579565b91506121ae826127f3565b604082019050919050565b60006121c6602c83612579565b91506121d182612842565b604082019050919050565b60006121e9602b83612579565b91506121f482612891565b604082019050919050565b600061220c601f83612579565b9150612217826128e0565b602082019050919050565b600061222f601683612579565b915061223a82612909565b602082019050919050565b61224e81612688565b82525050565b600060208201905061226960008301846120f1565b92915050565b600060208201905061228460008301846120e2565b92915050565b600060608201905061229f60008301866120f1565b6122ac60208301856120f1565b6122b96040830184612245565b949350505050565b60006020820190506122d66000830184612100565b92915050565b600060208201905081810360008301526122f58161212d565b9050919050565b6000602082019050818103600083015261231581612150565b9050919050565b6000602082019050818103600083015261233581612173565b9050919050565b6000602082019050818103600083015261235581612196565b9050919050565b60006020820190508181036000830152612375816121b9565b9050919050565b60006020820190508181036000830152612395816121dc565b9050919050565b600060208201905081810360008301526123b5816121ff565b9050919050565b600060208201905081810360008301526123d581612222565b9050919050565b60006020820190506123f16000830184612245565b92915050565b600060408201905061240c6000830185612245565b61241960208301846120f1565b9392505050565b60006080820190506124356000830187612245565b612442602083018661210f565b61244f6040830185612245565b61245c60608301846120e2565b95945050505050565b600060608201905061247a6000830186612245565b612487602083018561211e565b61249460408301846120f1565b949350505050565b60006080820190506124b16000830187612245565b6124be6020830186612245565b6124cb60408301856120f1565b6124d860608301846120f1565b95945050505050565b60006080820190506124f66000830187612245565b6125036020830186612245565b6125106040830185612245565b61251d60608301846120f1565b95945050505050565b600060a08201905061253b6000830188612245565b6125486020830187612245565b6125556040830186612245565b61256260608301856120f1565b61256f60808301846120f1565b9695505050505050565b600082825260208201905092915050565b600061259582612688565b91506125a083612688565b9250827fffffffffffffffffffffffffffffffffffffffffffffffffffffffffffffffff038211156125d5576125d4612723565b5b828201905092915050565b60006125eb82612688565b91506125f683612688565b92508282101561260957612608612723565b5b828203905092915050565b600061261f82612668565b9050919050565b600061263182612668565b9050919050565b60008115159050919050565b600061264f82612614565b9050919050565b600061266182612614565b9050919050565b600073ffffffffffffffffffffffffffffffffffffffff82169050919050565b6000819050919050565b600061269d826126a4565b9050919050565b60006126af82612668565b9050919050565b60006126c1826126c8565b9050919050565b60006126d382612668565b9050919050565b60006126e582612688565b91507fffffffffffffffffffffffffffffffffffffffffffffffffffffffffffffffff82141561271857612717612723565b5b600182019050919050565b7f4e487b7100000000000000000000000000000000000000000000000000000000600052601160045260246000fd5b7f455243353131343a207472616e736665722063616c6c6572206973206e6f742060008201527f6f776e6572206e6f7220617070726f7665640000000000000000000000000000602082015250565b7f496e76616c696420534254204964206e756d6265720000000000000000000000600082015250565b7f4e6f206665657320746f207472616e7366657200000000000000000000000000600082015250565b7f57687920697320746865206675636b696e67206465706c6f796572206d616b6960008201527f6e67207468652072657175657374000000000000000000000000000000000000602082015250565b7f4d7573742073656e6420657468657220776974682063616c6c4665654163636f60008201527f756e742066756e6374696f6e0000000000000000000000000000000000000000602082015250565b7f6665654163636f756e74206973206e6f7420612076616c696420636f6e74726160008201527f637420616464726573732e000000000000000000000000000000000000000000602082015250565b7f5265656e7472616e637947756172643a207265656e7472616e742063616c6c00600082015250565b7f496e76616c696420536f756c204944206e756d62657200000000000000000000600082015250565b61293b81612614565b811461294657600080fd5b50565b61295281612644565b811461295d57600080fd5b50565b61296981612656565b811461297457600080fd5b50565b61298081612688565b811461298b57600080fd5b5056fea2646970667358221220ada4160e1c6f89a207bf743dc4efbe19fd7ab74799470cceb282f9aa48f5a9d064736f6c63430008040033",
  "linkReferences": {},
  "deployedLinkReferences": {}
}