{
  "_format": "hh-sol-artifact-1",
  "contractName": "SoulHub",
  "sourceName": "src/backend/contracts/SoulHub.sol",
  "abi": [
    {
      "inputs": [
        {
          "internalType": "uint256",
          "name": "_fee",
          "type": "uint256"
        }
      ],
      "stateMutability": "nonpayable",
      "type": "constructor"
    },
    {
      "anonymous": false,
      "inputs": [
        {
          "indexed": false,
          "internalType": "uint256",
          "name": "sbtId",
          "type": "uint256"
        },
        {
          "indexed": true,
          "internalType": "address",
          "name": "sbt",
          "type": "address"
        },
        {
          "indexed": false,
          "internalType": "uint256",
          "name": "sbtItemId",
          "type": "uint256"
        },
        {
          "indexed": false,
          "internalType": "address",
          "name": "owner",
          "type": "address"
        },
        {
          "indexed": false,
          "internalType": "address",
          "name": "receiver",
          "type": "address"
        }
      ],
      "name": "AccessGranted",
      "type": "event"
    },
    {
      "anonymous": false,
      "inputs": [
        {
          "indexed": false,
          "internalType": "uint256",
          "name": "sbtId",
          "type": "uint256"
        },
        {
          "indexed": true,
          "internalType": "address",
          "name": "sbt",
          "type": "address"
        },
        {
          "indexed": false,
          "internalType": "uint256",
          "name": "sbtItemId",
          "type": "uint256"
        },
        {
          "indexed": false,
          "internalType": "address",
          "name": "owner",
          "type": "address"
        },
        {
          "indexed": false,
          "internalType": "address",
          "name": "receiver",
          "type": "address"
        }
      ],
      "name": "AccessRevoked",
      "type": "event"
    },
    {
      "anonymous": false,
      "inputs": [
        {
          "indexed": false,
          "internalType": "uint256",
          "name": "soulId",
          "type": "uint256"
        },
        {
          "indexed": true,
          "internalType": "address",
          "name": "soul",
          "type": "address"
        },
        {
          "indexed": false,
          "internalType": "address",
          "name": "minter",
          "type": "address"
        }
      ],
      "name": "CreatedSoul",
      "type": "event"
    },
    {
      "anonymous": false,
      "inputs": [
        {
          "indexed": false,
          "internalType": "uint256",
          "name": "sbtId",
          "type": "uint256"
        },
        {
          "indexed": true,
          "internalType": "address",
          "name": "sbt",
          "type": "address"
        },
        {
          "indexed": false,
          "internalType": "uint256",
          "name": "sbtItemId",
          "type": "uint256"
        },
        {
          "indexed": false,
          "internalType": "uint256",
          "name": "soulId",
          "type": "uint256"
        },
        {
          "indexed": false,
          "internalType": "address",
          "name": "minter",
          "type": "address"
        }
      ],
      "name": "Offered",
      "type": "event"
    },
    {
      "anonymous": false,
      "inputs": [
        {
          "indexed": false,
          "internalType": "uint256",
          "name": "sbtId",
          "type": "uint256"
        },
        {
          "indexed": true,
          "internalType": "address",
          "name": "sbt",
          "type": "address"
        },
        {
          "indexed": false,
          "internalType": "uint256",
          "name": "sbtItemId",
          "type": "uint256"
        },
        {
          "indexed": false,
          "internalType": "uint256",
          "name": "soulId",
          "type": "uint256"
        },
        {
          "indexed": false,
          "internalType": "address",
          "name": "minter",
          "type": "address"
        },
        {
          "indexed": false,
          "internalType": "address",
          "name": "mintee",
          "type": "address"
        }
      ],
      "name": "Received",
      "type": "event"
    },
    {
      "inputs": [
        {
          "internalType": "address",
          "name": "",
          "type": "address"
        },
        {
          "internalType": "uint256",
          "name": "",
          "type": "uint256"
        }
      ],
      "name": "_activeSBTs",
      "outputs": [
        {
          "internalType": "uint256",
          "name": "",
          "type": "uint256"
        }
      ],
      "stateMutability": "view",
      "type": "function"
    },
    {
      "inputs": [
        {
          "internalType": "uint256",
          "name": "",
          "type": "uint256"
        },
        {
          "internalType": "uint256",
          "name": "",
          "type": "uint256"
        }
      ],
      "name": "_permittedUsers",
      "outputs": [
        {
          "internalType": "address",
          "name": "",
          "type": "address"
        }
      ],
      "stateMutability": "view",
      "type": "function"
    },
    {
      "inputs": [
        {
          "internalType": "uint256",
          "name": "",
          "type": "uint256"
        }
      ],
      "name": "_sbtItems",
      "outputs": [
        {
          "internalType": "uint256",
          "name": "tokenId",
          "type": "uint256"
        },
        {
          "internalType": "contract SBT",
          "name": "sbt",
          "type": "address"
        },
        {
          "internalType": "uint256",
          "name": "soulItemId",
          "type": "uint256"
        },
        {
          "internalType": "address payable",
          "name": "minter",
          "type": "address"
        }
      ],
      "stateMutability": "view",
      "type": "function"
    },
    {
      "inputs": [
        {
          "internalType": "uint256",
          "name": "",
          "type": "uint256"
        }
      ],
      "name": "_soulContentCount",
      "outputs": [
        {
          "internalType": "uint256",
          "name": "",
          "type": "uint256"
        }
      ],
      "stateMutability": "view",
      "type": "function"
    },
    {
      "inputs": [
        {
          "internalType": "uint256",
          "name": "",
          "type": "uint256"
        }
      ],
      "name": "_soulItems",
      "outputs": [
        {
          "internalType": "uint256",
          "name": "soulId",
          "type": "uint256"
        },
        {
          "internalType": "contract Soul",
          "name": "soul",
          "type": "address"
        },
        {
          "internalType": "address",
          "name": "minter",
          "type": "address"
        }
      ],
      "stateMutability": "view",
      "type": "function"
    },
    {
      "inputs": [
        {
          "internalType": "uint256",
          "name": "_sbtId",
          "type": "uint256"
        },
        {
          "internalType": "address",
          "name": "_user",
          "type": "address"
        }
      ],
      "name": "checkAccess",
      "outputs": [
        {
          "internalType": "bool",
          "name": "",
          "type": "bool"
        }
      ],
      "stateMutability": "view",
      "type": "function"
    },
    {
      "inputs": [
        {
          "internalType": "contract SBT",
          "name": "_sbt",
          "type": "address"
        },
        {
          "internalType": "uint256",
          "name": "_sbtId",
          "type": "uint256"
        },
        {
          "internalType": "uint256",
          "name": "_soulId",
          "type": "uint256"
        }
      ],
      "name": "createSBTItem",
      "outputs": [],
      "stateMutability": "payable",
      "type": "function"
    },
    {
      "inputs": [
        {
          "internalType": "contract SBT",
          "name": "_sbt",
          "type": "address"
        },
        {
          "internalType": "uint256",
          "name": "_sbtId",
          "type": "uint256"
        },
        {
          "internalType": "uint256",
          "name": "_soulId",
          "type": "uint256"
        },
        {
          "internalType": "address",
          "name": "_mintee",
          "type": "address"
        }
      ],
      "name": "createSBTItemFor",
      "outputs": [],
      "stateMutability": "payable",
      "type": "function"
    },
    {
      "inputs": [
        {
          "internalType": "contract Soul",
          "name": "_soul",
          "type": "address"
        },
        {
          "internalType": "uint256",
          "name": "_soulId",
          "type": "uint256"
        }
      ],
      "name": "createSoulItem",
      "outputs": [],
      "stateMutability": "payable",
      "type": "function"
    },
    {
      "inputs": [],
      "name": "fee",
      "outputs": [
        {
          "internalType": "uint256",
          "name": "",
          "type": "uint256"
        }
      ],
      "stateMutability": "view",
      "type": "function"
    },
    {
      "inputs": [],
      "name": "getBalance",
      "outputs": [
        {
          "internalType": "uint256",
          "name": "",
          "type": "uint256"
        }
      ],
      "stateMutability": "view",
      "type": "function"
    },
    {
      "inputs": [
        {
          "internalType": "uint256",
          "name": "_soulId",
          "type": "uint256"
        }
      ],
      "name": "getSoulContentCount",
      "outputs": [
        {
          "internalType": "uint256",
          "name": "",
          "type": "uint256"
        }
      ],
      "stateMutability": "view",
      "type": "function"
    },
    {
      "inputs": [
        {
          "internalType": "contract SBT",
          "name": "_sbt",
          "type": "address"
        },
        {
          "internalType": "uint256",
          "name": "_sbtId",
          "type": "uint256"
        },
        {
          "internalType": "address",
          "name": "_to",
          "type": "address"
        }
      ],
      "name": "grantAccess",
      "outputs": [],
      "stateMutability": "nonpayable",
      "type": "function"
    },
    {
      "inputs": [
        {
          "internalType": "contract SBT",
          "name": "_sbt",
          "type": "address"
        },
        {
          "internalType": "uint256",
          "name": "_sbtId",
          "type": "uint256"
        },
        {
          "internalType": "address",
          "name": "_user",
          "type": "address"
        }
      ],
      "name": "revokeAccess",
      "outputs": [],
      "stateMutability": "nonpayable",
      "type": "function"
    },
    {
      "inputs": [],
      "name": "sbtItemCount",
      "outputs": [
        {
          "internalType": "uint256",
          "name": "",
          "type": "uint256"
        }
      ],
      "stateMutability": "view",
      "type": "function"
    },
    {
      "inputs": [],
      "name": "soulItemCount",
      "outputs": [
        {
          "internalType": "uint256",
          "name": "",
          "type": "uint256"
        }
      ],
      "stateMutability": "view",
      "type": "function"
    }
  ],
  "bytecode": "0x60a06040523480156200001157600080fd5b50604051620021c6380380620021c6833981810160405281019062000037919062000065565b6001600081905550806080818152505050620000b5565b6000815190506200005f816200009b565b92915050565b6000602082840312156200007857600080fd5b600062000088848285016200004e565b91505092915050565b6000819050919050565b620000a68162000091565b8114620000b257600080fd5b50565b6080516120f5620000d160003960006114ed01526120f56000f3fe6080604052600436106100f35760003560e01c8063836081eb1161008a578063d2dcdfb811610059578063d2dcdfb81461034d578063d60967501461038a578063ddca3f43146103a6578063f1f8cad7146103d1576100f3565b8063836081eb146102785780639d02fa6e14610294578063a1d35da4146102d3578063d13c870314610310576100f3565b806343882607116100c657806343882607146101b95780634c909c95146101d55780634fb3aad7146101fe57806382039e251461023b576100f3565b806312065fe0146100f85780631c61454b146101235780631d6b3df7146101635780632c8da1461461018e575b600080fd5b34801561010457600080fd5b5061010d6103fa565b60405161011a9190611c23565b60405180910390f35b34801561012f57600080fd5b5061014a600480360381019061014591906119af565b610419565b60405161015a9493929190611c67565b60405180910390f35b34801561016f57600080fd5b50610178610489565b6040516101859190611c23565b60405180910390f35b34801561019a57600080fd5b506101a361048f565b6040516101b09190611c23565b60405180910390f35b6101d360048036038101906101ce91906118c1565b610495565b005b3480156101e157600080fd5b506101fc60048036038101906101f79190611872565b61069c565b005b34801561020a57600080fd5b50610225600480360381019061022091906119af565b610d50565b6040516102329190611c23565b60405180910390f35b34801561024757600080fd5b50610262600480360381019061025d9190611a14565b610d6d565b60405161026f9190611b36565b60405180910390f35b610292600480360381019061028d9190611910565b610dbb565b005b3480156102a057600080fd5b506102bb60048036038101906102b691906119af565b61108a565b6040516102ca93929190611cac565b60405180910390f35b3480156102df57600080fd5b506102fa60048036038101906102f591906119af565b6110f4565b6040516103079190611c23565b60405180910390f35b34801561031c57600080fd5b50610337600480360381019061033291906119d8565b61110c565b6040516103449190611b88565b60405180910390f35b34801561035957600080fd5b50610374600480360381019061036f9190611836565b6112f8565b6040516103819190611c23565b60405180910390f35b6103a4600480360381019061039f9190611973565b611329565b005b3480156103b257600080fd5b506103bb6114eb565b6040516103c89190611c23565b60405180910390f35b3480156103dd57600080fd5b506103f860048036038101906103f39190611872565b61150f565b005b60003373ffffffffffffffffffffffffffffffffffffffff1631905090565b60046020528060005260406000206000915090508060000154908060010160009054906101000a900473ffffffffffffffffffffffffffffffffffffffff16908060020154908060030160009054906101000a900473ffffffffffffffffffffffffffffffffffffffff16905084565b60015481565b60025481565b61049d61174a565b60016002546104ac9190611dd1565b82146104ed576040517f08c379a00000000000000000000000000000000000000000000000000000000081526004016104e490611bc3565b60405180910390fd5b6002600081548092919061050090611f21565b919050555060405180608001604052808381526020018473ffffffffffffffffffffffffffffffffffffffff16815260200160025481526020013373ffffffffffffffffffffffffffffffffffffffff168152506004600060025481526020019081526020016000206000820151816000015560208201518160010160006101000a81548173ffffffffffffffffffffffffffffffffffffffff021916908373ffffffffffffffffffffffffffffffffffffffff1602179055506040820151816002015560608201518160030160006101000a81548173ffffffffffffffffffffffffffffffffffffffff021916908373ffffffffffffffffffffffffffffffffffffffff16021790555090505060016005600083815260200190815260200160002060008282546106329190611dd1565b925050819055508273ffffffffffffffffffffffffffffffffffffffff167f655a0cf9c8db81512be9a76dc1c5ae5380b8816ce6ad659cd61b715e2999d59a8360025484336040516106879493929190611d28565b60405180910390a261069761179a565b505050565b6106a461174a565b3373ffffffffffffffffffffffffffffffffffffffff168373ffffffffffffffffffffffffffffffffffffffff16636352211e846040518263ffffffff1660e01b81526004016106f49190611c23565b60206040518083038186803b15801561070c57600080fd5b505afa158015610720573d6000803e3d6000fd5b505050506040513d601f19601f82011682018060405250810190610744919061180d565b73ffffffffffffffffffffffffffffffffffffffff161461079a576040517f08c379a000000000000000000000000000000000000000000000000000000000815260040161079190611ba3565b60405180910390fd5b60005b6006600084815260200190815260200160002080549050811015610a21578173ffffffffffffffffffffffffffffffffffffffff1660066000858152602001908152602001600020828154811061081d577f4e487b7100000000000000000000000000000000000000000000000000000000600052603260045260246000fd5b9060005260206000200160009054906101000a900473ffffffffffffffffffffffffffffffffffffffff1673ffffffffffffffffffffffffffffffffffffffff161415610a0e57600660008481526020019081526020016000206001600660008681526020019081526020016000208054905061089a9190611e27565b815481106108d1577f4e487b7100000000000000000000000000000000000000000000000000000000600052603260045260246000fd5b9060005260206000200160009054906101000a900473ffffffffffffffffffffffffffffffffffffffff16600660008581526020019081526020016000208281548110610947577f4e487b7100000000000000000000000000000000000000000000000000000000600052603260045260246000fd5b9060005260206000200160006101000a81548173ffffffffffffffffffffffffffffffffffffffff021916908373ffffffffffffffffffffffffffffffffffffffff160217905550600660008481526020019081526020016000208054806109d8577f4e487b7100000000000000000000000000000000000000000000000000000000600052603160045260246000fd5b6001900381819060005260206000200160006101000a81549073ffffffffffffffffffffffffffffffffffffffff021916905590555b8080610a1990611f21565b91505061079d565b5060005b600760008373ffffffffffffffffffffffffffffffffffffffff1673ffffffffffffffffffffffffffffffffffffffff16815260200190815260200160002080549050811015610cec5782600760008473ffffffffffffffffffffffffffffffffffffffff1673ffffffffffffffffffffffffffffffffffffffff1681526020019081526020016000208281548110610ae7577f4e487b7100000000000000000000000000000000000000000000000000000000600052603260045260246000fd5b90600052602060002001541415610cd957600760008373ffffffffffffffffffffffffffffffffffffffff1673ffffffffffffffffffffffffffffffffffffffff1681526020019081526020016000206001600760008573ffffffffffffffffffffffffffffffffffffffff1673ffffffffffffffffffffffffffffffffffffffff16815260200190815260200160002080549050610b869190611e27565b81548110610bbd577f4e487b7100000000000000000000000000000000000000000000000000000000600052603260045260246000fd5b9060005260206000200154600760008473ffffffffffffffffffffffffffffffffffffffff1673ffffffffffffffffffffffffffffffffffffffff1681526020019081526020016000208281548110610c3f577f4e487b7100000000000000000000000000000000000000000000000000000000600052603260045260246000fd5b9060005260206000200181905550600760008373ffffffffffffffffffffffffffffffffffffffff1673ffffffffffffffffffffffffffffffffffffffff168152602001908152602001600020805480610cc2577f4e487b7100000000000000000000000000000000000000000000000000000000600052603160045260246000fd5b600190038181906000526020600020016000905590555b8080610ce490611f21565b915050610a25565b508273ffffffffffffffffffffffffffffffffffffffff167f51ae65be747682556f18eb2ee0f3929a33db715ebd3e667478532f8c11c2a632836002543385604051610d3b9493929190611ce3565b60405180910390a2610d4b61179a565b505050565b600060056000838152602001908152602001600020549050919050565b60066020528160005260406000208181548110610d8957600080fd5b906000526020600020016000915091509054906101000a900473ffffffffffffffffffffffffffffffffffffffff1681565b610dc361174a565b6001600254610dd29190611dd1565b8314610e13576040517f08c379a0000000000000000000000000000000000000000000000000000000008152600401610e0a90611bc3565b60405180910390fd5b60026000815480929190610e2690611f21565b919050555060405180608001604052808481526020018573ffffffffffffffffffffffffffffffffffffffff16815260200160025481526020013373ffffffffffffffffffffffffffffffffffffffff168152506004600060025481526020019081526020016000206000820151816000015560208201518160010160006101000a81548173ffffffffffffffffffffffffffffffffffffffff021916908373ffffffffffffffffffffffffffffffffffffffff1602179055506040820151816002015560608201518160030160006101000a81548173ffffffffffffffffffffffffffffffffffffffff021916908373ffffffffffffffffffffffffffffffffffffffff1602179055509050506001600560008481526020019081526020016000206000828254610f589190611dd1565b925050819055508373ffffffffffffffffffffffffffffffffffffffff166323b872dd3383866040518463ffffffff1660e01b8152600401610f9c93929190611b51565b600060405180830381600087803b158015610fb657600080fd5b505af1158015610fca573d6000803e3d6000fd5b505050508373ffffffffffffffffffffffffffffffffffffffff167f655a0cf9c8db81512be9a76dc1c5ae5380b8816ce6ad659cd61b715e2999d59a84600254853360405161101c9493929190611d28565b60405180910390a28373ffffffffffffffffffffffffffffffffffffffff167f60c3af4bd3198369c53ddf46c7c73f57c3e7949c54c52b18187de1924bfd65a084600254853386604051611074959493929190611d6d565b60405180910390a261108461179a565b50505050565b60036020528060005260406000206000915090508060000154908060010160009054906101000a900473ffffffffffffffffffffffffffffffffffffffff16908060020160009054906101000a900473ffffffffffffffffffffffffffffffffffffffff16905083565b60056020528060005260406000206000915090505481565b6000806000905060005b60066000868152602001908152602001600020805490508110156111f5578373ffffffffffffffffffffffffffffffffffffffff16600660008781526020019081526020016000208281548110611196577f4e487b7100000000000000000000000000000000000000000000000000000000600052603260045260246000fd5b9060005260206000200160009054906101000a900473ffffffffffffffffffffffffffffffffffffffff1673ffffffffffffffffffffffffffffffffffffffff1614156111e257600191505b80806111ed90611f21565b915050611116565b5060005b600760008573ffffffffffffffffffffffffffffffffffffffff1673ffffffffffffffffffffffffffffffffffffffff168152602001908152602001600020805490508110156112ed5784600760008673ffffffffffffffffffffffffffffffffffffffff1673ffffffffffffffffffffffffffffffffffffffff16815260200190815260200160002082815481106112bb577f4e487b7100000000000000000000000000000000000000000000000000000000600052603260045260246000fd5b906000526020600020015414156112da57600180156112d75750815b91505b80806112e590611f21565b9150506111f9565b508091505092915050565b6007602052816000526040600020818154811061131457600080fd5b90600052602060002001600091509150505481565b61133161174a565b6001805461133f9190611dd1565b8114611380576040517f08c379a000000000000000000000000000000000000000000000000000000000815260040161137790611c03565b60405180910390fd5b6001600081548092919061139390611f21565b919050555060405180606001604052808281526020018373ffffffffffffffffffffffffffffffffffffffff1681526020013373ffffffffffffffffffffffffffffffffffffffff168152506003600060015481526020019081526020016000206000820151816000015560208201518160010160006101000a81548173ffffffffffffffffffffffffffffffffffffffff021916908373ffffffffffffffffffffffffffffffffffffffff16021790555060408201518160020160006101000a81548173ffffffffffffffffffffffffffffffffffffffff021916908373ffffffffffffffffffffffffffffffffffffffff1602179055509050508173ffffffffffffffffffffffffffffffffffffffff167f9957802590e9d40d57be33b4d37eecf5aff4900395a367c06461336d137547f382336040516114d7929190611c3e565b60405180910390a26114e761179a565b5050565b7f000000000000000000000000000000000000000000000000000000000000000081565b61151761174a565b3373ffffffffffffffffffffffffffffffffffffffff168373ffffffffffffffffffffffffffffffffffffffff16636352211e846040518263ffffffff1660e01b81526004016115679190611c23565b60206040518083038186803b15801561157f57600080fd5b505afa158015611593573d6000803e3d6000fd5b505050506040513d601f19601f820116820180604052508101906115b7919061180d565b73ffffffffffffffffffffffffffffffffffffffff161461160d576040517f08c379a000000000000000000000000000000000000000000000000000000000815260040161160490611ba3565b60405180910390fd5b60066000838152602001908152602001600020819080600181540180825580915050600190039060005260206000200160009091909190916101000a81548173ffffffffffffffffffffffffffffffffffffffff021916908373ffffffffffffffffffffffffffffffffffffffff160217905550600760008273ffffffffffffffffffffffffffffffffffffffff1673ffffffffffffffffffffffffffffffffffffffff1681526020019081526020016000208290806001815401808255809150506001900390600052602060002001600090919091909150558273ffffffffffffffffffffffffffffffffffffffff167f877e3c9bad8c007a196b2e7625bcd65fe3fd14227894cba4dd96ab2c73fd738a8360025433856040516117359493929190611ce3565b60405180910390a261174561179a565b505050565b60026000541415611790576040517f08c379a000000000000000000000000000000000000000000000000000000000815260040161178790611be3565b60405180910390fd5b6002600081905550565b6001600081905550565b6000813590506117b381612063565b92915050565b6000815190506117c881612063565b92915050565b6000813590506117dd8161207a565b92915050565b6000813590506117f281612091565b92915050565b600081359050611807816120a8565b92915050565b60006020828403121561181f57600080fd5b600061182d848285016117b9565b91505092915050565b6000806040838503121561184957600080fd5b6000611857858286016117a4565b9250506020611868858286016117f8565b9150509250929050565b60008060006060848603121561188757600080fd5b6000611895868287016117ce565b93505060206118a6868287016117f8565b92505060406118b7868287016117a4565b9150509250925092565b6000806000606084860312156118d657600080fd5b60006118e4868287016117ce565b93505060206118f5868287016117f8565b9250506040611906868287016117f8565b9150509250925092565b6000806000806080858703121561192657600080fd5b6000611934878288016117ce565b9450506020611945878288016117f8565b9350506040611956878288016117f8565b9250506060611967878288016117a4565b91505092959194509250565b6000806040838503121561198657600080fd5b6000611994858286016117e3565b92505060206119a5858286016117f8565b9150509250929050565b6000602082840312156119c157600080fd5b60006119cf848285016117f8565b91505092915050565b600080604083850312156119eb57600080fd5b60006119f9858286016117f8565b9250506020611a0a858286016117a4565b9150509250929050565b60008060408385031215611a2757600080fd5b6000611a35858286016117f8565b9250506020611a46858286016117f8565b9150509250929050565b611a5981611e6d565b82525050565b611a6881611e5b565b82525050565b611a7781611e7f565b82525050565b611a8681611ed9565b82525050565b611a9581611efd565b82525050565b6000611aa8603283611dc0565b9150611ab382611f99565b604082019050919050565b6000611acb601583611dc0565b9150611ad682611fe8565b602082019050919050565b6000611aee601f83611dc0565b9150611af982612011565b602082019050919050565b6000611b11601683611dc0565b9150611b1c8261203a565b602082019050919050565b611b3081611ecf565b82525050565b6000602082019050611b4b6000830184611a5f565b92915050565b6000606082019050611b666000830186611a5f565b611b736020830185611a5f565b611b806040830184611b27565b949350505050565b6000602082019050611b9d6000830184611a6e565b92915050565b60006020820190508181036000830152611bbc81611a9b565b9050919050565b60006020820190508181036000830152611bdc81611abe565b9050919050565b60006020820190508181036000830152611bfc81611ae1565b9050919050565b60006020820190508181036000830152611c1c81611b04565b9050919050565b6000602082019050611c386000830184611b27565b92915050565b6000604082019050611c536000830185611b27565b611c606020830184611a5f565b9392505050565b6000608082019050611c7c6000830187611b27565b611c896020830186611a7d565b611c966040830185611b27565b611ca36060830184611a50565b95945050505050565b6000606082019050611cc16000830186611b27565b611cce6020830185611a8c565b611cdb6040830184611a5f565b949350505050565b6000608082019050611cf86000830187611b27565b611d056020830186611b27565b611d126040830185611a5f565b611d1f6060830184611a5f565b95945050505050565b6000608082019050611d3d6000830187611b27565b611d4a6020830186611b27565b611d576040830185611b27565b611d646060830184611a5f565b95945050505050565b600060a082019050611d826000830188611b27565b611d8f6020830187611b27565b611d9c6040830186611b27565b611da96060830185611a5f565b611db66080830184611a5f565b9695505050505050565b600082825260208201905092915050565b6000611ddc82611ecf565b9150611de783611ecf565b9250827fffffffffffffffffffffffffffffffffffffffffffffffffffffffffffffffff03821115611e1c57611e1b611f6a565b5b828201905092915050565b6000611e3282611ecf565b9150611e3d83611ecf565b925082821015611e5057611e4f611f6a565b5b828203905092915050565b6000611e6682611eaf565b9050919050565b6000611e7882611eaf565b9050919050565b60008115159050919050565b6000611e9682611e5b565b9050919050565b6000611ea882611e5b565b9050919050565b600073ffffffffffffffffffffffffffffffffffffffff82169050919050565b6000819050919050565b6000611ee482611eeb565b9050919050565b6000611ef682611eaf565b9050919050565b6000611f0882611f0f565b9050919050565b6000611f1a82611eaf565b9050919050565b6000611f2c82611ecf565b91507fffffffffffffffffffffffffffffffffffffffffffffffffffffffffffffffff821415611f5f57611f5e611f6a565b5b600182019050919050565b7f4e487b7100000000000000000000000000000000000000000000000000000000600052601160045260246000fd5b7f455243353131343a207472616e736665722063616c6c6572206973206e6f742060008201527f6f776e6572206e6f7220617070726f7665640000000000000000000000000000602082015250565b7f496e76616c696420534254204964206e756d6265720000000000000000000000600082015250565b7f5265656e7472616e637947756172643a207265656e7472616e742063616c6c00600082015250565b7f496e76616c696420536f756c204944206e756d62657200000000000000000000600082015250565b61206c81611e5b565b811461207757600080fd5b50565b61208381611e8b565b811461208e57600080fd5b50565b61209a81611e9d565b81146120a557600080fd5b50565b6120b181611ecf565b81146120bc57600080fd5b5056fea2646970667358221220a401a951ad6cc077170b8146e68a6ec3a89c27eea9aeb532ea7a88b29ee5a9fa64736f6c63430008040033",
  "linkReferences": {},
  "deployedLinkReferences": {}
}