{
  "_format": "hh-sol-artifact-1",
  "contractName": "SoulHub",
  "sourceName": "src/backend/contracts/SoulHub.sol",
  "abi": [
    {
      "inputs": [
        {
          "internalType": "uint256",
          "name": "_fee",
          "type": "uint256"
        }
      ],
      "stateMutability": "nonpayable",
      "type": "constructor"
    },
    {
      "anonymous": false,
      "inputs": [
        {
          "indexed": false,
          "internalType": "uint256",
          "name": "sbtId",
          "type": "uint256"
        },
        {
          "indexed": true,
          "internalType": "address",
          "name": "sbt",
          "type": "address"
        },
        {
          "indexed": false,
          "internalType": "uint256",
          "name": "sbtItemId",
          "type": "uint256"
        },
        {
          "indexed": false,
          "internalType": "address",
          "name": "owner",
          "type": "address"
        },
        {
          "indexed": false,
          "internalType": "address",
          "name": "receiver",
          "type": "address"
        }
      ],
      "name": "AccessGranted",
      "type": "event"
    },
    {
      "anonymous": false,
      "inputs": [
        {
          "indexed": false,
          "internalType": "uint256",
          "name": "sbtId",
          "type": "uint256"
        },
        {
          "indexed": true,
          "internalType": "address",
          "name": "sbt",
          "type": "address"
        },
        {
          "indexed": false,
          "internalType": "uint256",
          "name": "sbtItemId",
          "type": "uint256"
        },
        {
          "indexed": false,
          "internalType": "address",
          "name": "owner",
          "type": "address"
        },
        {
          "indexed": false,
          "internalType": "address",
          "name": "receiver",
          "type": "address"
        }
      ],
      "name": "AccessRevoked",
      "type": "event"
    },
    {
      "anonymous": false,
      "inputs": [
        {
          "indexed": false,
          "internalType": "uint256",
          "name": "soulId",
          "type": "uint256"
        },
        {
          "indexed": true,
          "internalType": "address",
          "name": "soul",
          "type": "address"
        },
        {
          "indexed": false,
          "internalType": "address",
          "name": "minter",
          "type": "address"
        }
      ],
      "name": "CreatedSoul",
      "type": "event"
    },
    {
      "anonymous": false,
      "inputs": [
        {
          "indexed": false,
          "internalType": "uint256",
          "name": "sbtId",
          "type": "uint256"
        },
        {
          "indexed": true,
          "internalType": "address",
          "name": "sbt",
          "type": "address"
        },
        {
          "indexed": false,
          "internalType": "uint256",
          "name": "sbtItemId",
          "type": "uint256"
        },
        {
          "indexed": false,
          "internalType": "uint256",
          "name": "soulId",
          "type": "uint256"
        },
        {
          "indexed": false,
          "internalType": "address",
          "name": "minter",
          "type": "address"
        }
      ],
      "name": "Offered",
      "type": "event"
    },
    {
      "anonymous": false,
      "inputs": [
        {
          "indexed": false,
          "internalType": "uint256",
          "name": "sbtId",
          "type": "uint256"
        },
        {
          "indexed": true,
          "internalType": "address",
          "name": "sbt",
          "type": "address"
        },
        {
          "indexed": false,
          "internalType": "uint256",
          "name": "sbtItemId",
          "type": "uint256"
        },
        {
          "indexed": false,
          "internalType": "uint256",
          "name": "soulId",
          "type": "uint256"
        },
        {
          "indexed": false,
          "internalType": "address",
          "name": "minter",
          "type": "address"
        },
        {
          "indexed": false,
          "internalType": "address",
          "name": "mintee",
          "type": "address"
        }
      ],
      "name": "Received",
      "type": "event"
    },
    {
      "inputs": [
        {
          "internalType": "address",
          "name": "",
          "type": "address"
        },
        {
          "internalType": "uint256",
          "name": "",
          "type": "uint256"
        }
      ],
      "name": "_activeSBTs",
      "outputs": [
        {
          "internalType": "uint256",
          "name": "",
          "type": "uint256"
        }
      ],
      "stateMutability": "view",
      "type": "function"
    },
    {
      "inputs": [
        {
          "internalType": "uint256",
          "name": "",
          "type": "uint256"
        },
        {
          "internalType": "uint256",
          "name": "",
          "type": "uint256"
        }
      ],
      "name": "_permittedUsers",
      "outputs": [
        {
          "internalType": "address",
          "name": "",
          "type": "address"
        }
      ],
      "stateMutability": "view",
      "type": "function"
    },
    {
      "inputs": [
        {
          "internalType": "uint256",
          "name": "",
          "type": "uint256"
        }
      ],
      "name": "_sbtItems",
      "outputs": [
        {
          "internalType": "uint256",
          "name": "tokenId",
          "type": "uint256"
        },
        {
          "internalType": "contract SBT",
          "name": "sbt",
          "type": "address"
        },
        {
          "internalType": "uint256",
          "name": "soulItemId",
          "type": "uint256"
        },
        {
          "internalType": "address payable",
          "name": "minter",
          "type": "address"
        }
      ],
      "stateMutability": "view",
      "type": "function"
    },
    {
      "inputs": [
        {
          "internalType": "uint256",
          "name": "",
          "type": "uint256"
        }
      ],
      "name": "_soulContentCount",
      "outputs": [
        {
          "internalType": "uint256",
          "name": "",
          "type": "uint256"
        }
      ],
      "stateMutability": "view",
      "type": "function"
    },
    {
      "inputs": [
        {
          "internalType": "uint256",
          "name": "",
          "type": "uint256"
        }
      ],
      "name": "_soulItems",
      "outputs": [
        {
          "internalType": "uint256",
          "name": "soulId",
          "type": "uint256"
        },
        {
          "internalType": "contract Soul",
          "name": "soul",
          "type": "address"
        },
        {
          "internalType": "address",
          "name": "minter",
          "type": "address"
        }
      ],
      "stateMutability": "view",
      "type": "function"
    },
    {
      "inputs": [
        {
          "internalType": "uint256",
          "name": "_sbtId",
          "type": "uint256"
        },
        {
          "internalType": "address",
          "name": "_user",
          "type": "address"
        }
      ],
      "name": "checkAccess",
      "outputs": [
        {
          "internalType": "bool",
          "name": "",
          "type": "bool"
        }
      ],
      "stateMutability": "view",
      "type": "function"
    },
    {
      "inputs": [
        {
          "internalType": "contract SBT",
          "name": "_sbt",
          "type": "address"
        },
        {
          "internalType": "uint256",
          "name": "_sbtId",
          "type": "uint256"
        },
        {
          "internalType": "uint256",
          "name": "_soulId",
          "type": "uint256"
        }
      ],
      "name": "createSBTItem",
      "outputs": [],
      "stateMutability": "payable",
      "type": "function"
    },
    {
      "inputs": [
        {
          "internalType": "contract SBT",
          "name": "_sbt",
          "type": "address"
        },
        {
          "internalType": "uint256",
          "name": "_sbtId",
          "type": "uint256"
        },
        {
          "internalType": "uint256",
          "name": "_soulId",
          "type": "uint256"
        },
        {
          "internalType": "address",
          "name": "_mintee",
          "type": "address"
        }
      ],
      "name": "createSBTItemFor",
      "outputs": [],
      "stateMutability": "payable",
      "type": "function"
    },
    {
      "inputs": [
        {
          "internalType": "contract Soul",
          "name": "_soul",
          "type": "address"
        },
        {
          "internalType": "uint256",
          "name": "_soulId",
          "type": "uint256"
        }
      ],
      "name": "createSoulItem",
      "outputs": [],
      "stateMutability": "payable",
      "type": "function"
    },
    {
      "inputs": [],
      "name": "fee",
      "outputs": [
        {
          "internalType": "uint256",
          "name": "",
          "type": "uint256"
        }
      ],
      "stateMutability": "view",
      "type": "function"
    },
    {
      "inputs": [],
      "name": "getBalance",
      "outputs": [
        {
          "internalType": "uint256",
          "name": "",
          "type": "uint256"
        }
      ],
      "stateMutability": "view",
      "type": "function"
    },
    {
      "inputs": [
        {
          "internalType": "uint256",
          "name": "_soulId",
          "type": "uint256"
        }
      ],
      "name": "getSoulContentCount",
      "outputs": [
        {
          "internalType": "uint256",
          "name": "",
          "type": "uint256"
        }
      ],
      "stateMutability": "view",
      "type": "function"
    },
    {
      "inputs": [
        {
          "internalType": "contract SBT",
          "name": "_sbt",
          "type": "address"
        },
        {
          "internalType": "uint256",
          "name": "_sbtId",
          "type": "uint256"
        },
        {
          "internalType": "address",
          "name": "_to",
          "type": "address"
        }
      ],
      "name": "grantAccess",
      "outputs": [],
      "stateMutability": "nonpayable",
      "type": "function"
    },
    {
      "inputs": [
        {
          "internalType": "contract SBT",
          "name": "_sbt",
          "type": "address"
        },
        {
          "internalType": "uint256",
          "name": "_sbtId",
          "type": "uint256"
        },
        {
          "internalType": "address",
          "name": "_user",
          "type": "address"
        }
      ],
      "name": "revokeAccess",
      "outputs": [],
      "stateMutability": "nonpayable",
      "type": "function"
    },
    {
      "inputs": [],
      "name": "sbtItemCount",
      "outputs": [
        {
          "internalType": "uint256",
          "name": "",
          "type": "uint256"
        }
      ],
      "stateMutability": "view",
      "type": "function"
    },
    {
      "inputs": [],
      "name": "soulItemCount",
      "outputs": [
        {
          "internalType": "uint256",
          "name": "",
          "type": "uint256"
        }
      ],
      "stateMutability": "view",
      "type": "function"
    }
  ],
  "bytecode": "0x60a06040523480156200001157600080fd5b50604051620021c4380380620021c4833981810160405281019062000037919062000065565b6001600081905550806080818152505050620000b5565b6000815190506200005f816200009b565b92915050565b6000602082840312156200007857600080fd5b600062000088848285016200004e565b91505092915050565b6000819050919050565b620000a68162000091565b8114620000b257600080fd5b50565b6080516120f3620000d160003960006114eb01526120f36000f3fe6080604052600436106100f35760003560e01c8063836081eb1161008a578063d2dcdfb811610059578063d2dcdfb81461034d578063d60967501461038a578063ddca3f43146103a6578063f1f8cad7146103d1576100f3565b8063836081eb146102785780639d02fa6e14610294578063a1d35da4146102d3578063d13c870314610310576100f3565b806343882607116100c657806343882607146101b95780634c909c95146101d55780634fb3aad7146101fe57806382039e251461023b576100f3565b806312065fe0146100f85780631c61454b146101235780631d6b3df7146101635780632c8da1461461018e575b600080fd5b34801561010457600080fd5b5061010d6103fa565b60405161011a9190611c21565b60405180910390f35b34801561012f57600080fd5b5061014a600480360381019061014591906119ad565b610419565b60405161015a9493929190611c65565b60405180910390f35b34801561016f57600080fd5b50610178610489565b6040516101859190611c21565b60405180910390f35b34801561019a57600080fd5b506101a361048f565b6040516101b09190611c21565b60405180910390f35b6101d360048036038101906101ce91906118bf565b610495565b005b3480156101e157600080fd5b506101fc60048036038101906101f79190611870565b61069a565b005b34801561020a57600080fd5b50610225600480360381019061022091906119ad565b610d4e565b6040516102329190611c21565b60405180910390f35b34801561024757600080fd5b50610262600480360381019061025d9190611a12565b610d6b565b60405161026f9190611b34565b60405180910390f35b610292600480360381019061028d919061190e565b610db9565b005b3480156102a057600080fd5b506102bb60048036038101906102b691906119ad565b611088565b6040516102ca93929190611caa565b60405180910390f35b3480156102df57600080fd5b506102fa60048036038101906102f591906119ad565b6110f2565b6040516103079190611c21565b60405180910390f35b34801561031c57600080fd5b50610337600480360381019061033291906119d6565b61110a565b6040516103449190611b86565b60405180910390f35b34801561035957600080fd5b50610374600480360381019061036f9190611834565b6112f6565b6040516103819190611c21565b60405180910390f35b6103a4600480360381019061039f9190611971565b611327565b005b3480156103b257600080fd5b506103bb6114e9565b6040516103c89190611c21565b60405180910390f35b3480156103dd57600080fd5b506103f860048036038101906103f39190611870565b61150d565b005b60003373ffffffffffffffffffffffffffffffffffffffff1631905090565b60046020528060005260406000206000915090508060000154908060010160009054906101000a900473ffffffffffffffffffffffffffffffffffffffff16908060020154908060030160009054906101000a900473ffffffffffffffffffffffffffffffffffffffff16905084565b60015481565b60025481565b61049d611748565b60016002546104ac9190611dcf565b82146104ed576040517f08c379a00000000000000000000000000000000000000000000000000000000081526004016104e490611bc1565b60405180910390fd5b6002600081548092919061050090611f1f565b919050555060405180608001604052808381526020018473ffffffffffffffffffffffffffffffffffffffff1681526020018281526020013373ffffffffffffffffffffffffffffffffffffffff168152506004600060025481526020019081526020016000206000820151816000015560208201518160010160006101000a81548173ffffffffffffffffffffffffffffffffffffffff021916908373ffffffffffffffffffffffffffffffffffffffff1602179055506040820151816002015560608201518160030160006101000a81548173ffffffffffffffffffffffffffffffffffffffff021916908373ffffffffffffffffffffffffffffffffffffffff16021790555090505060016005600083815260200190815260200160002060008282546106309190611dcf565b925050819055508273ffffffffffffffffffffffffffffffffffffffff167f655a0cf9c8db81512be9a76dc1c5ae5380b8816ce6ad659cd61b715e2999d59a8360025484336040516106859493929190611d26565b60405180910390a2610695611798565b505050565b6106a2611748565b3373ffffffffffffffffffffffffffffffffffffffff168373ffffffffffffffffffffffffffffffffffffffff16636352211e846040518263ffffffff1660e01b81526004016106f29190611c21565b60206040518083038186803b15801561070a57600080fd5b505afa15801561071e573d6000803e3d6000fd5b505050506040513d601f19601f82011682018060405250810190610742919061180b565b73ffffffffffffffffffffffffffffffffffffffff1614610798576040517f08c379a000000000000000000000000000000000000000000000000000000000815260040161078f90611ba1565b60405180910390fd5b60005b6006600084815260200190815260200160002080549050811015610a1f578173ffffffffffffffffffffffffffffffffffffffff1660066000858152602001908152602001600020828154811061081b577f4e487b7100000000000000000000000000000000000000000000000000000000600052603260045260246000fd5b9060005260206000200160009054906101000a900473ffffffffffffffffffffffffffffffffffffffff1673ffffffffffffffffffffffffffffffffffffffff161415610a0c5760066000848152602001908152602001600020600160066000868152602001908152602001600020805490506108989190611e25565b815481106108cf577f4e487b7100000000000000000000000000000000000000000000000000000000600052603260045260246000fd5b9060005260206000200160009054906101000a900473ffffffffffffffffffffffffffffffffffffffff16600660008581526020019081526020016000208281548110610945577f4e487b7100000000000000000000000000000000000000000000000000000000600052603260045260246000fd5b9060005260206000200160006101000a81548173ffffffffffffffffffffffffffffffffffffffff021916908373ffffffffffffffffffffffffffffffffffffffff160217905550600660008481526020019081526020016000208054806109d6577f4e487b7100000000000000000000000000000000000000000000000000000000600052603160045260246000fd5b6001900381819060005260206000200160006101000a81549073ffffffffffffffffffffffffffffffffffffffff021916905590555b8080610a1790611f1f565b91505061079b565b5060005b600760008373ffffffffffffffffffffffffffffffffffffffff1673ffffffffffffffffffffffffffffffffffffffff16815260200190815260200160002080549050811015610cea5782600760008473ffffffffffffffffffffffffffffffffffffffff1673ffffffffffffffffffffffffffffffffffffffff1681526020019081526020016000208281548110610ae5577f4e487b7100000000000000000000000000000000000000000000000000000000600052603260045260246000fd5b90600052602060002001541415610cd757600760008373ffffffffffffffffffffffffffffffffffffffff1673ffffffffffffffffffffffffffffffffffffffff1681526020019081526020016000206001600760008573ffffffffffffffffffffffffffffffffffffffff1673ffffffffffffffffffffffffffffffffffffffff16815260200190815260200160002080549050610b849190611e25565b81548110610bbb577f4e487b7100000000000000000000000000000000000000000000000000000000600052603260045260246000fd5b9060005260206000200154600760008473ffffffffffffffffffffffffffffffffffffffff1673ffffffffffffffffffffffffffffffffffffffff1681526020019081526020016000208281548110610c3d577f4e487b7100000000000000000000000000000000000000000000000000000000600052603260045260246000fd5b9060005260206000200181905550600760008373ffffffffffffffffffffffffffffffffffffffff1673ffffffffffffffffffffffffffffffffffffffff168152602001908152602001600020805480610cc0577f4e487b7100000000000000000000000000000000000000000000000000000000600052603160045260246000fd5b600190038181906000526020600020016000905590555b8080610ce290611f1f565b915050610a23565b508273ffffffffffffffffffffffffffffffffffffffff167f51ae65be747682556f18eb2ee0f3929a33db715ebd3e667478532f8c11c2a632836002543385604051610d399493929190611ce1565b60405180910390a2610d49611798565b505050565b600060056000838152602001908152602001600020549050919050565b60066020528160005260406000208181548110610d8757600080fd5b906000526020600020016000915091509054906101000a900473ffffffffffffffffffffffffffffffffffffffff1681565b610dc1611748565b6001600254610dd09190611dcf565b8314610e11576040517f08c379a0000000000000000000000000000000000000000000000000000000008152600401610e0890611bc1565b60405180910390fd5b60026000815480929190610e2490611f1f565b919050555060405180608001604052808481526020018573ffffffffffffffffffffffffffffffffffffffff16815260200160025481526020013373ffffffffffffffffffffffffffffffffffffffff168152506004600060025481526020019081526020016000206000820151816000015560208201518160010160006101000a81548173ffffffffffffffffffffffffffffffffffffffff021916908373ffffffffffffffffffffffffffffffffffffffff1602179055506040820151816002015560608201518160030160006101000a81548173ffffffffffffffffffffffffffffffffffffffff021916908373ffffffffffffffffffffffffffffffffffffffff1602179055509050506001600560008481526020019081526020016000206000828254610f569190611dcf565b925050819055508373ffffffffffffffffffffffffffffffffffffffff166323b872dd3383866040518463ffffffff1660e01b8152600401610f9a93929190611b4f565b600060405180830381600087803b158015610fb457600080fd5b505af1158015610fc8573d6000803e3d6000fd5b505050508373ffffffffffffffffffffffffffffffffffffffff167f655a0cf9c8db81512be9a76dc1c5ae5380b8816ce6ad659cd61b715e2999d59a84600254853360405161101a9493929190611d26565b60405180910390a28373ffffffffffffffffffffffffffffffffffffffff167f60c3af4bd3198369c53ddf46c7c73f57c3e7949c54c52b18187de1924bfd65a084600254853386604051611072959493929190611d6b565b60405180910390a2611082611798565b50505050565b60036020528060005260406000206000915090508060000154908060010160009054906101000a900473ffffffffffffffffffffffffffffffffffffffff16908060020160009054906101000a900473ffffffffffffffffffffffffffffffffffffffff16905083565b60056020528060005260406000206000915090505481565b6000806000905060005b60066000868152602001908152602001600020805490508110156111f3578373ffffffffffffffffffffffffffffffffffffffff16600660008781526020019081526020016000208281548110611194577f4e487b7100000000000000000000000000000000000000000000000000000000600052603260045260246000fd5b9060005260206000200160009054906101000a900473ffffffffffffffffffffffffffffffffffffffff1673ffffffffffffffffffffffffffffffffffffffff1614156111e057600191505b80806111eb90611f1f565b915050611114565b5060005b600760008573ffffffffffffffffffffffffffffffffffffffff1673ffffffffffffffffffffffffffffffffffffffff168152602001908152602001600020805490508110156112eb5784600760008673ffffffffffffffffffffffffffffffffffffffff1673ffffffffffffffffffffffffffffffffffffffff16815260200190815260200160002082815481106112b9577f4e487b7100000000000000000000000000000000000000000000000000000000600052603260045260246000fd5b906000526020600020015414156112d857600180156112d55750815b91505b80806112e390611f1f565b9150506111f7565b508091505092915050565b6007602052816000526040600020818154811061131257600080fd5b90600052602060002001600091509150505481565b61132f611748565b6001805461133d9190611dcf565b811461137e576040517f08c379a000000000000000000000000000000000000000000000000000000000815260040161137590611c01565b60405180910390fd5b6001600081548092919061139190611f1f565b919050555060405180606001604052808281526020018373ffffffffffffffffffffffffffffffffffffffff1681526020013373ffffffffffffffffffffffffffffffffffffffff168152506003600060015481526020019081526020016000206000820151816000015560208201518160010160006101000a81548173ffffffffffffffffffffffffffffffffffffffff021916908373ffffffffffffffffffffffffffffffffffffffff16021790555060408201518160020160006101000a81548173ffffffffffffffffffffffffffffffffffffffff021916908373ffffffffffffffffffffffffffffffffffffffff1602179055509050508173ffffffffffffffffffffffffffffffffffffffff167f9957802590e9d40d57be33b4d37eecf5aff4900395a367c06461336d137547f382336040516114d5929190611c3c565b60405180910390a26114e5611798565b5050565b7f000000000000000000000000000000000000000000000000000000000000000081565b611515611748565b3373ffffffffffffffffffffffffffffffffffffffff168373ffffffffffffffffffffffffffffffffffffffff16636352211e846040518263ffffffff1660e01b81526004016115659190611c21565b60206040518083038186803b15801561157d57600080fd5b505afa158015611591573d6000803e3d6000fd5b505050506040513d601f19601f820116820180604052508101906115b5919061180b565b73ffffffffffffffffffffffffffffffffffffffff161461160b576040517f08c379a000000000000000000000000000000000000000000000000000000000815260040161160290611ba1565b60405180910390fd5b60066000838152602001908152602001600020819080600181540180825580915050600190039060005260206000200160009091909190916101000a81548173ffffffffffffffffffffffffffffffffffffffff021916908373ffffffffffffffffffffffffffffffffffffffff160217905550600760008273ffffffffffffffffffffffffffffffffffffffff1673ffffffffffffffffffffffffffffffffffffffff1681526020019081526020016000208290806001815401808255809150506001900390600052602060002001600090919091909150558273ffffffffffffffffffffffffffffffffffffffff167f877e3c9bad8c007a196b2e7625bcd65fe3fd14227894cba4dd96ab2c73fd738a8360025433856040516117339493929190611ce1565b60405180910390a2611743611798565b505050565b6002600054141561178e576040517f08c379a000000000000000000000000000000000000000000000000000000000815260040161178590611be1565b60405180910390fd5b6002600081905550565b6001600081905550565b6000813590506117b181612061565b92915050565b6000815190506117c681612061565b92915050565b6000813590506117db81612078565b92915050565b6000813590506117f08161208f565b92915050565b600081359050611805816120a6565b92915050565b60006020828403121561181d57600080fd5b600061182b848285016117b7565b91505092915050565b6000806040838503121561184757600080fd5b6000611855858286016117a2565b9250506020611866858286016117f6565b9150509250929050565b60008060006060848603121561188557600080fd5b6000611893868287016117cc565b93505060206118a4868287016117f6565b92505060406118b5868287016117a2565b9150509250925092565b6000806000606084860312156118d457600080fd5b60006118e2868287016117cc565b93505060206118f3868287016117f6565b9250506040611904868287016117f6565b9150509250925092565b6000806000806080858703121561192457600080fd5b6000611932878288016117cc565b9450506020611943878288016117f6565b9350506040611954878288016117f6565b9250506060611965878288016117a2565b91505092959194509250565b6000806040838503121561198457600080fd5b6000611992858286016117e1565b92505060206119a3858286016117f6565b9150509250929050565b6000602082840312156119bf57600080fd5b60006119cd848285016117f6565b91505092915050565b600080604083850312156119e957600080fd5b60006119f7858286016117f6565b9250506020611a08858286016117a2565b9150509250929050565b60008060408385031215611a2557600080fd5b6000611a33858286016117f6565b9250506020611a44858286016117f6565b9150509250929050565b611a5781611e6b565b82525050565b611a6681611e59565b82525050565b611a7581611e7d565b82525050565b611a8481611ed7565b82525050565b611a9381611efb565b82525050565b6000611aa6603283611dbe565b9150611ab182611f97565b604082019050919050565b6000611ac9601583611dbe565b9150611ad482611fe6565b602082019050919050565b6000611aec601f83611dbe565b9150611af78261200f565b602082019050919050565b6000611b0f601683611dbe565b9150611b1a82612038565b602082019050919050565b611b2e81611ecd565b82525050565b6000602082019050611b496000830184611a5d565b92915050565b6000606082019050611b646000830186611a5d565b611b716020830185611a5d565b611b7e6040830184611b25565b949350505050565b6000602082019050611b9b6000830184611a6c565b92915050565b60006020820190508181036000830152611bba81611a99565b9050919050565b60006020820190508181036000830152611bda81611abc565b9050919050565b60006020820190508181036000830152611bfa81611adf565b9050919050565b60006020820190508181036000830152611c1a81611b02565b9050919050565b6000602082019050611c366000830184611b25565b92915050565b6000604082019050611c516000830185611b25565b611c5e6020830184611a5d565b9392505050565b6000608082019050611c7a6000830187611b25565b611c876020830186611a7b565b611c946040830185611b25565b611ca16060830184611a4e565b95945050505050565b6000606082019050611cbf6000830186611b25565b611ccc6020830185611a8a565b611cd96040830184611a5d565b949350505050565b6000608082019050611cf66000830187611b25565b611d036020830186611b25565b611d106040830185611a5d565b611d1d6060830184611a5d565b95945050505050565b6000608082019050611d3b6000830187611b25565b611d486020830186611b25565b611d556040830185611b25565b611d626060830184611a5d565b95945050505050565b600060a082019050611d806000830188611b25565b611d8d6020830187611b25565b611d9a6040830186611b25565b611da76060830185611a5d565b611db46080830184611a5d565b9695505050505050565b600082825260208201905092915050565b6000611dda82611ecd565b9150611de583611ecd565b9250827fffffffffffffffffffffffffffffffffffffffffffffffffffffffffffffffff03821115611e1a57611e19611f68565b5b828201905092915050565b6000611e3082611ecd565b9150611e3b83611ecd565b925082821015611e4e57611e4d611f68565b5b828203905092915050565b6000611e6482611ead565b9050919050565b6000611e7682611ead565b9050919050565b60008115159050919050565b6000611e9482611e59565b9050919050565b6000611ea682611e59565b9050919050565b600073ffffffffffffffffffffffffffffffffffffffff82169050919050565b6000819050919050565b6000611ee282611ee9565b9050919050565b6000611ef482611ead565b9050919050565b6000611f0682611f0d565b9050919050565b6000611f1882611ead565b9050919050565b6000611f2a82611ecd565b91507fffffffffffffffffffffffffffffffffffffffffffffffffffffffffffffffff821415611f5d57611f5c611f68565b5b600182019050919050565b7f4e487b7100000000000000000000000000000000000000000000000000000000600052601160045260246000fd5b7f455243353131343a207472616e736665722063616c6c6572206973206e6f742060008201527f6f776e6572206e6f7220617070726f7665640000000000000000000000000000602082015250565b7f496e76616c696420534254204964206e756d6265720000000000000000000000600082015250565b7f5265656e7472616e637947756172643a207265656e7472616e742063616c6c00600082015250565b7f496e76616c696420536f756c204944206e756d62657200000000000000000000600082015250565b61206a81611e59565b811461207557600080fd5b50565b61208181611e89565b811461208c57600080fd5b50565b61209881611e9b565b81146120a357600080fd5b50565b6120af81611ecd565b81146120ba57600080fd5b5056fea2646970667358221220c47e88ad270e36f1799249a4bfe52030afc54507b35f08a9dad569758f21a74a64736f6c63430008040033",
  "linkReferences": {},
  "deployedLinkReferences": {}
}