{
  "_format": "hh-sol-artifact-1",
  "contractName": "Soul",
  "sourceName": "src/backend/contracts/Soul.sol",
  "abi": [
    {
      "inputs": [
        {
          "internalType": "string",
          "name": "_soulName",
          "type": "string"
        }
      ],
      "stateMutability": "nonpayable",
      "type": "constructor"
    },
    {
      "anonymous": false,
      "inputs": [
        {
          "indexed": false,
          "internalType": "uint256",
          "name": "tokenId",
          "type": "uint256"
        },
        {
          "indexed": true,
          "internalType": "address",
          "name": "sbt",
          "type": "address"
        },
        {
          "indexed": false,
          "internalType": "address",
          "name": "soul",
          "type": "address"
        },
        {
          "indexed": false,
          "internalType": "address",
          "name": "minter",
          "type": "address"
        }
      ],
      "name": "Offered",
      "type": "event"
    },
    {
      "anonymous": false,
      "inputs": [
        {
          "indexed": false,
          "internalType": "uint256",
          "name": "tokenId",
          "type": "uint256"
        },
        {
          "indexed": true,
          "internalType": "address",
          "name": "sbt",
          "type": "address"
        },
        {
          "indexed": false,
          "internalType": "address",
          "name": "soul",
          "type": "address"
        },
        {
          "indexed": false,
          "internalType": "address",
          "name": "minter",
          "type": "address"
        },
        {
          "indexed": false,
          "internalType": "address",
          "name": "mintee",
          "type": "address"
        }
      ],
      "name": "Received",
      "type": "event"
    },
    {
      "inputs": [],
      "name": "getSoulName",
      "outputs": [
        {
          "internalType": "string",
          "name": "",
          "type": "string"
        }
      ],
      "stateMutability": "view",
      "type": "function"
    },
    {
      "inputs": [],
      "name": "itemCount",
      "outputs": [
        {
          "internalType": "uint256",
          "name": "",
          "type": "uint256"
        }
      ],
      "stateMutability": "view",
      "type": "function"
    },
    {
      "inputs": [
        {
          "internalType": "uint256",
          "name": "",
          "type": "uint256"
        }
      ],
      "name": "items",
      "outputs": [
        {
          "internalType": "uint256",
          "name": "tokenId",
          "type": "uint256"
        },
        {
          "internalType": "contract IERC721",
          "name": "sbt",
          "type": "address"
        },
        {
          "internalType": "address",
          "name": "soul",
          "type": "address"
        },
        {
          "internalType": "address payable",
          "name": "minter",
          "type": "address"
        }
      ],
      "stateMutability": "view",
      "type": "function"
    },
    {
      "inputs": [
        {
          "internalType": "contract IERC721",
          "name": "_sbt",
          "type": "address"
        },
        {
          "internalType": "address",
          "name": "_soul",
          "type": "address"
        }
      ],
      "name": "mintSBT",
      "outputs": [],
      "stateMutability": "nonpayable",
      "type": "function"
    },
    {
      "inputs": [
        {
          "internalType": "contract IERC721",
          "name": "_sbt",
          "type": "address"
        },
        {
          "internalType": "address",
          "name": "_mintee",
          "type": "address"
        },
        {
          "internalType": "address",
          "name": "_soul",
          "type": "address"
        }
      ],
      "name": "mintSBTFor",
      "outputs": [],
      "stateMutability": "nonpayable",
      "type": "function"
    },
    {
      "inputs": [],
      "name": "soulName",
      "outputs": [
        {
          "internalType": "string",
          "name": "",
          "type": "string"
        }
      ],
      "stateMutability": "view",
      "type": "function"
    }
  ],
  "bytecode": "0x60806040523480156200001157600080fd5b50604051620010b3380380620010b3833981810160405281019062000037919062000181565b60016000819055508060019080519060200190620000579291906200005f565b505062000336565b8280546200006d906200025b565b90600052602060002090601f016020900481019282620000915760008555620000dd565b82601f10620000ac57805160ff1916838001178555620000dd565b82800160010185558215620000dd579182015b82811115620000dc578251825591602001919060010190620000bf565b5b509050620000ec9190620000f0565b5090565b5b808211156200010b576000816000905550600101620000f1565b5090565b6000620001266200012084620001ef565b620001c6565b9050828152602081018484840111156200013f57600080fd5b6200014c84828562000225565b509392505050565b600082601f8301126200016657600080fd5b8151620001788482602086016200010f565b91505092915050565b6000602082840312156200019457600080fd5b600082015167ffffffffffffffff811115620001af57600080fd5b620001bd8482850162000154565b91505092915050565b6000620001d2620001e5565b9050620001e0828262000291565b919050565b6000604051905090565b600067ffffffffffffffff8211156200020d576200020c620002f6565b5b620002188262000325565b9050602081019050919050565b60005b838110156200024557808201518184015260208101905062000228565b8381111562000255576000848401525b50505050565b600060028204905060018216806200027457607f821691505b602082108114156200028b576200028a620002c7565b5b50919050565b6200029c8262000325565b810181811067ffffffffffffffff82111715620002be57620002bd620002f6565b5b80604052505050565b7f4e487b7100000000000000000000000000000000000000000000000000000000600052602260045260246000fd5b7f4e487b7100000000000000000000000000000000000000000000000000000000600052604160045260246000fd5b6000601f19601f8301169050919050565b610d6d80620003466000396000f3fe608060405234801561001057600080fd5b50600436106100625760003560e01c80630f2e68af14610067578063161cba861461008557806324bd5984146100a15780636bfb0d01146100bd578063b507d481146100db578063bfb231d2146100f9575b600080fd5b61006f61012c565b60405161007c91906109ee565b60405180910390f35b61009f600480360381019061009a919061086b565b6101ba565b005b6100bb60048036038101906100b691906108a7565b6103dc565b005b6100c5610704565b6040516100d29190610a30565b60405180910390f35b6100e361070a565b6040516100f091906109ee565b60405180910390f35b610113600480360381019061010e91906108f6565b61079c565b6040516101239493929190610ac7565b60405180910390f35b6001805461013990610bdf565b80601f016020809104026020016040519081016040528092919081815260200182805461016590610bdf565b80156101b25780601f10610187576101008083540402835291602001916101b2565b820191906000526020600020905b81548152906001019060200180831161019557829003601f168201915b505050505081565b60026000541415610200576040517f08c379a00000000000000000000000000000000000000000000000000000000081526004016101f790610a10565b60405180910390fd5b60026000819055506002600081548092919061021b90610c11565b9190505550604051806080016040528060025481526020018373ffffffffffffffffffffffffffffffffffffffff1681526020018273ffffffffffffffffffffffffffffffffffffffff1681526020013373ffffffffffffffffffffffffffffffffffffffff168152506003600060025481526020019081526020016000206000820151816000015560208201518160010160006101000a81548173ffffffffffffffffffffffffffffffffffffffff021916908373ffffffffffffffffffffffffffffffffffffffff16021790555060408201518160020160006101000a81548173ffffffffffffffffffffffffffffffffffffffff021916908373ffffffffffffffffffffffffffffffffffffffff16021790555060608201518160030160006101000a81548173ffffffffffffffffffffffffffffffffffffffff021916908373ffffffffffffffffffffffffffffffffffffffff1602179055509050508173ffffffffffffffffffffffffffffffffffffffff167f383a465e61e3dd5230bf38625a76399c8896363cdf0c8ada084a220a52910deb60025483336040516103c893929190610a4b565b60405180910390a260016000819055505050565b60026000541415610422576040517f08c379a000000000000000000000000000000000000000000000000000000000815260040161041990610a10565b60405180910390fd5b60026000819055506002600081548092919061043d90610c11565b9190505550604051806080016040528060025481526020018473ffffffffffffffffffffffffffffffffffffffff1681526020018273ffffffffffffffffffffffffffffffffffffffff1681526020013373ffffffffffffffffffffffffffffffffffffffff168152506003600060025481526020019081526020016000206000820151816000015560208201518160010160006101000a81548173ffffffffffffffffffffffffffffffffffffffff021916908373ffffffffffffffffffffffffffffffffffffffff16021790555060408201518160020160006101000a81548173ffffffffffffffffffffffffffffffffffffffff021916908373ffffffffffffffffffffffffffffffffffffffff16021790555060608201518160030160006101000a81548173ffffffffffffffffffffffffffffffffffffffff021916908373ffffffffffffffffffffffffffffffffffffffff160217905550905050600060036000600254815260200190815260200160002090508060010160009054906101000a900473ffffffffffffffffffffffffffffffffffffffff1673ffffffffffffffffffffffffffffffffffffffff166323b872dd33856002546040518463ffffffff1660e01b815260040161061a939291906109b7565b600060405180830381600087803b15801561063457600080fd5b505af1158015610648573d6000803e3d6000fd5b505050508373ffffffffffffffffffffffffffffffffffffffff167f383a465e61e3dd5230bf38625a76399c8896363cdf0c8ada084a220a52910deb600254843360405161069893929190610a4b565b60405180910390a28373ffffffffffffffffffffffffffffffffffffffff167fcfdd94a0c7f1c87973f61c3934282e7b9c0a6b07e95d8bb544a5aea0fd201b606002548433876040516106ee9493929190610a82565b60405180910390a2506001600081905550505050565b60025481565b60606001805461071990610bdf565b80601f016020809104026020016040519081016040528092919081815260200182805461074590610bdf565b80156107925780601f1061076757610100808354040283529160200191610792565b820191906000526020600020905b81548152906001019060200180831161077557829003601f168201915b5050505050905090565b60036020528060005260406000206000915090508060000154908060010160009054906101000a900473ffffffffffffffffffffffffffffffffffffffff16908060020160009054906101000a900473ffffffffffffffffffffffffffffffffffffffff16908060030160009054906101000a900473ffffffffffffffffffffffffffffffffffffffff16905084565b60008135905061083b81610cf2565b92915050565b60008135905061085081610d09565b92915050565b60008135905061086581610d20565b92915050565b6000806040838503121561087e57600080fd5b600061088c85828601610841565b925050602061089d8582860161082c565b9150509250929050565b6000806000606084860312156108bc57600080fd5b60006108ca86828701610841565b93505060206108db8682870161082c565b92505060406108ec8682870161082c565b9150509250925092565b60006020828403121561090857600080fd5b600061091684828501610856565b91505092915050565b61092881610b3a565b82525050565b61093781610b28565b82525050565b61094681610b88565b82525050565b600061095782610b0c565b6109618185610b17565b9350610971818560208601610bac565b61097a81610cb8565b840191505092915050565b6000610992601f83610b17565b915061099d82610cc9565b602082019050919050565b6109b181610b7e565b82525050565b60006060820190506109cc600083018661092e565b6109d9602083018561092e565b6109e660408301846109a8565b949350505050565b60006020820190508181036000830152610a08818461094c565b905092915050565b60006020820190508181036000830152610a2981610985565b9050919050565b6000602082019050610a4560008301846109a8565b92915050565b6000606082019050610a6060008301866109a8565b610a6d602083018561092e565b610a7a604083018461092e565b949350505050565b6000608082019050610a9760008301876109a8565b610aa4602083018661092e565b610ab1604083018561092e565b610abe606083018461092e565b95945050505050565b6000608082019050610adc60008301876109a8565b610ae9602083018661093d565b610af6604083018561092e565b610b03606083018461091f565b95945050505050565b600081519050919050565b600082825260208201905092915050565b6000610b3382610b5e565b9050919050565b6000610b4582610b5e565b9050919050565b6000610b5782610b28565b9050919050565b600073ffffffffffffffffffffffffffffffffffffffff82169050919050565b6000819050919050565b6000610b9382610b9a565b9050919050565b6000610ba582610b5e565b9050919050565b60005b83811015610bca578082015181840152602081019050610baf565b83811115610bd9576000848401525b50505050565b60006002820490506001821680610bf757607f821691505b60208210811415610c0b57610c0a610c89565b5b50919050565b6000610c1c82610b7e565b91507fffffffffffffffffffffffffffffffffffffffffffffffffffffffffffffffff821415610c4f57610c4e610c5a565b5b600182019050919050565b7f4e487b7100000000000000000000000000000000000000000000000000000000600052601160045260246000fd5b7f4e487b7100000000000000000000000000000000000000000000000000000000600052602260045260246000fd5b6000601f19601f8301169050919050565b7f5265656e7472616e637947756172643a207265656e7472616e742063616c6c00600082015250565b610cfb81610b28565b8114610d0657600080fd5b50565b610d1281610b4c565b8114610d1d57600080fd5b50565b610d2981610b7e565b8114610d3457600080fd5b5056fea2646970667358221220c753d76a48651bb0925b28a6026730c6b744a17468797e1423902e8641830b7d64736f6c63430008040033",
  "linkReferences": {},
  "deployedLinkReferences": {}
}