{
  "_format": "hh-sol-artifact-1",
  "contractName": "SoulHub",
  "sourceName": "src/backend/contracts/SoulHub.sol",
  "abi": [
    {
      "inputs": [
        {
          "internalType": "uint256",
          "name": "_fee",
          "type": "uint256"
        },
        {
          "internalType": "address",
          "name": "_feeAcc",
          "type": "address"
        }
      ],
      "stateMutability": "nonpayable",
      "type": "constructor"
    },
    {
      "anonymous": false,
      "inputs": [
        {
          "indexed": false,
          "internalType": "uint256",
          "name": "sbtId",
          "type": "uint256"
        },
        {
          "indexed": true,
          "internalType": "address",
          "name": "sbt",
          "type": "address"
        },
        {
          "indexed": false,
          "internalType": "uint256",
          "name": "sbtItemId",
          "type": "uint256"
        },
        {
          "indexed": false,
          "internalType": "address",
          "name": "owner",
          "type": "address"
        },
        {
          "indexed": false,
          "internalType": "address",
          "name": "receiver",
          "type": "address"
        }
      ],
      "name": "AccessGranted",
      "type": "event"
    },
    {
      "anonymous": false,
      "inputs": [
        {
          "indexed": false,
          "internalType": "uint256",
          "name": "sbtId",
          "type": "uint256"
        },
        {
          "indexed": true,
          "internalType": "address",
          "name": "sbt",
          "type": "address"
        },
        {
          "indexed": false,
          "internalType": "uint256",
          "name": "sbtItemId",
          "type": "uint256"
        },
        {
          "indexed": false,
          "internalType": "address",
          "name": "owner",
          "type": "address"
        },
        {
          "indexed": false,
          "internalType": "address",
          "name": "receiver",
          "type": "address"
        }
      ],
      "name": "AccessRevoked",
      "type": "event"
    },
    {
      "anonymous": false,
      "inputs": [
        {
          "indexed": false,
          "internalType": "uint256",
          "name": "soulId",
          "type": "uint256"
        },
        {
          "indexed": true,
          "internalType": "address",
          "name": "soul",
          "type": "address"
        },
        {
          "indexed": false,
          "internalType": "address",
          "name": "minter",
          "type": "address"
        }
      ],
      "name": "CreatedSoul",
      "type": "event"
    },
    {
      "anonymous": false,
      "inputs": [
        {
          "indexed": false,
          "internalType": "uint256",
          "name": "sbtId",
          "type": "uint256"
        },
        {
          "indexed": true,
          "internalType": "address",
          "name": "sbt",
          "type": "address"
        },
        {
          "indexed": false,
          "internalType": "uint256",
          "name": "sbtItemId",
          "type": "uint256"
        },
        {
          "indexed": false,
          "internalType": "uint256",
          "name": "soulId",
          "type": "uint256"
        },
        {
          "indexed": false,
          "internalType": "address",
          "name": "minter",
          "type": "address"
        }
      ],
      "name": "Offered",
      "type": "event"
    },
    {
      "anonymous": false,
      "inputs": [
        {
          "indexed": false,
          "internalType": "uint256",
          "name": "sbtId",
          "type": "uint256"
        },
        {
          "indexed": true,
          "internalType": "address",
          "name": "sbt",
          "type": "address"
        },
        {
          "indexed": false,
          "internalType": "uint256",
          "name": "sbtItemId",
          "type": "uint256"
        },
        {
          "indexed": false,
          "internalType": "uint256",
          "name": "soulId",
          "type": "uint256"
        },
        {
          "indexed": false,
          "internalType": "address",
          "name": "minter",
          "type": "address"
        },
        {
          "indexed": false,
          "internalType": "address",
          "name": "mintee",
          "type": "address"
        }
      ],
      "name": "Received",
      "type": "event"
    },
    {
      "inputs": [
        {
          "internalType": "address",
          "name": "",
          "type": "address"
        },
        {
          "internalType": "uint256",
          "name": "",
          "type": "uint256"
        }
      ],
      "name": "_activeSBTs",
      "outputs": [
        {
          "internalType": "uint256",
          "name": "",
          "type": "uint256"
        }
      ],
      "stateMutability": "view",
      "type": "function"
    },
    {
      "inputs": [
        {
          "internalType": "uint256",
          "name": "",
          "type": "uint256"
        },
        {
          "internalType": "uint256",
          "name": "",
          "type": "uint256"
        }
      ],
      "name": "_permittedUsers",
      "outputs": [
        {
          "internalType": "address",
          "name": "",
          "type": "address"
        }
      ],
      "stateMutability": "view",
      "type": "function"
    },
    {
      "inputs": [
        {
          "internalType": "uint256",
          "name": "",
          "type": "uint256"
        }
      ],
      "name": "_sbtItems",
      "outputs": [
        {
          "internalType": "uint256",
          "name": "tokenId",
          "type": "uint256"
        },
        {
          "internalType": "contract SBT",
          "name": "sbt",
          "type": "address"
        },
        {
          "internalType": "uint256",
          "name": "soulItemId",
          "type": "uint256"
        },
        {
          "internalType": "address payable",
          "name": "minter",
          "type": "address"
        }
      ],
      "stateMutability": "view",
      "type": "function"
    },
    {
      "inputs": [
        {
          "internalType": "uint256",
          "name": "",
          "type": "uint256"
        }
      ],
      "name": "_soulContentCount",
      "outputs": [
        {
          "internalType": "uint256",
          "name": "",
          "type": "uint256"
        }
      ],
      "stateMutability": "view",
      "type": "function"
    },
    {
      "inputs": [
        {
          "internalType": "uint256",
          "name": "",
          "type": "uint256"
        }
      ],
      "name": "_soulItems",
      "outputs": [
        {
          "internalType": "uint256",
          "name": "soulId",
          "type": "uint256"
        },
        {
          "internalType": "contract Soul",
          "name": "soul",
          "type": "address"
        },
        {
          "internalType": "address",
          "name": "minter",
          "type": "address"
        }
      ],
      "stateMutability": "view",
      "type": "function"
    },
    {
      "inputs": [
        {
          "internalType": "uint256",
          "name": "_sbtId",
          "type": "uint256"
        },
        {
          "internalType": "address",
          "name": "_user",
          "type": "address"
        }
      ],
      "name": "checkAccess",
      "outputs": [
        {
          "internalType": "bool",
          "name": "",
          "type": "bool"
        }
      ],
      "stateMutability": "view",
      "type": "function"
    },
    {
      "inputs": [
        {
          "internalType": "contract SBT",
          "name": "_sbt",
          "type": "address"
        },
        {
          "internalType": "uint256",
          "name": "_sbtId",
          "type": "uint256"
        },
        {
          "internalType": "uint256",
          "name": "_soulId",
          "type": "uint256"
        }
      ],
      "name": "createSBTItem",
      "outputs": [],
      "stateMutability": "payable",
      "type": "function"
    },
    {
      "inputs": [
        {
          "internalType": "contract SBT",
          "name": "_sbt",
          "type": "address"
        },
        {
          "internalType": "uint256",
          "name": "_sbtId",
          "type": "uint256"
        },
        {
          "internalType": "uint256",
          "name": "_soulId",
          "type": "uint256"
        },
        {
          "internalType": "address",
          "name": "_mintee",
          "type": "address"
        }
      ],
      "name": "createSBTItemFor",
      "outputs": [],
      "stateMutability": "payable",
      "type": "function"
    },
    {
      "inputs": [
        {
          "internalType": "contract Soul",
          "name": "_soul",
          "type": "address"
        },
        {
          "internalType": "uint256",
          "name": "_soulId",
          "type": "uint256"
        }
      ],
      "name": "createSoulItem",
      "outputs": [],
      "stateMutability": "payable",
      "type": "function"
    },
    {
      "inputs": [],
      "name": "fee",
      "outputs": [
        {
          "internalType": "uint256",
          "name": "",
          "type": "uint256"
        }
      ],
      "stateMutability": "view",
      "type": "function"
    },
    {
      "inputs": [],
      "name": "feeAccount",
      "outputs": [
        {
          "internalType": "address payable",
          "name": "",
          "type": "address"
        }
      ],
      "stateMutability": "view",
      "type": "function"
    },
    {
      "inputs": [],
      "name": "getBalance",
      "outputs": [
        {
          "internalType": "uint256",
          "name": "",
          "type": "uint256"
        }
      ],
      "stateMutability": "view",
      "type": "function"
    },
    {
      "inputs": [
        {
          "internalType": "uint256",
          "name": "_soulId",
          "type": "uint256"
        }
      ],
      "name": "getSoulContentCount",
      "outputs": [
        {
          "internalType": "uint256",
          "name": "",
          "type": "uint256"
        }
      ],
      "stateMutability": "view",
      "type": "function"
    },
    {
      "inputs": [
        {
          "internalType": "contract SBT",
          "name": "_sbt",
          "type": "address"
        },
        {
          "internalType": "uint256",
          "name": "_sbtId",
          "type": "uint256"
        },
        {
          "internalType": "address",
          "name": "_to",
          "type": "address"
        }
      ],
      "name": "grantAccess",
      "outputs": [],
      "stateMutability": "nonpayable",
      "type": "function"
    },
    {
      "inputs": [
        {
          "internalType": "contract SBT",
          "name": "_sbt",
          "type": "address"
        },
        {
          "internalType": "uint256",
          "name": "_sbtId",
          "type": "uint256"
        },
        {
          "internalType": "address",
          "name": "_user",
          "type": "address"
        }
      ],
      "name": "revokeAccess",
      "outputs": [],
      "stateMutability": "nonpayable",
      "type": "function"
    },
    {
      "inputs": [],
      "name": "sbtItemCount",
      "outputs": [
        {
          "internalType": "uint256",
          "name": "",
          "type": "uint256"
        }
      ],
      "stateMutability": "view",
      "type": "function"
    },
    {
      "inputs": [],
      "name": "soulItemCount",
      "outputs": [
        {
          "internalType": "uint256",
          "name": "",
          "type": "uint256"
        }
      ],
      "stateMutability": "view",
      "type": "function"
    },
    {
      "inputs": [],
      "name": "transferGas",
      "outputs": [],
      "stateMutability": "payable",
      "type": "function"
    },
    {
      "stateMutability": "payable",
      "type": "receive"
    }
  ],
  "bytecode": "0x60c06040523480156200001157600080fd5b5060405162002456380380620024568339818101604052810190620000379190620000b4565b60016000819055508073ffffffffffffffffffffffffffffffffffffffff1660808173ffffffffffffffffffffffffffffffffffffffff1660601b815250508160a08181525050505062000167565b600081519050620000978162000133565b92915050565b600081519050620000ae816200014d565b92915050565b60008060408385031215620000c857600080fd5b6000620000d8858286016200009d565b9250506020620000eb8582860162000086565b9150509250929050565b6000620001028262000109565b9050919050565b600073ffffffffffffffffffffffffffffffffffffffff82169050919050565b6000819050919050565b6200013e81620000f5565b81146200014a57600080fd5b50565b620001588162000129565b81146200016457600080fd5b50565b60805160601c60a0516122aa620001ac6000396000818161014e015281816115fe015261189701526000818161011401528181610e54015261185d01526122aa6000f3fe60806040526004361061010d5760003560e01c8063836081eb11610095578063d2dcdfb811610064578063d2dcdfb814610420578063d60967501461045d578063ddca3f4314610479578063f1f8cad7146104a4578063fa03f797146104cd5761019b565b8063836081eb1461034b5780639d02fa6e14610367578063a1d35da4146103a6578063d13c8703146103e35761019b565b806343882607116100dc57806343882607146102615780634c909c951461027d5780634fb3aad7146102a657806365e17c9d146102e357806382039e251461030e5761019b565b806312065fe0146101a05780631c61454b146101cb5780631d6b3df71461020b5780632c8da146146102365761019b565b3661019b577f000000000000000000000000000000000000000000000000000000000000000073ffffffffffffffffffffffffffffffffffffffff166108fc7f00000000000000000000000000000000000000000000000000000000000000009081150290604051600060405180830381858888f19350505050158015610198573d6000803e3d6000fd5b50005b600080fd5b3480156101ac57600080fd5b506101b56104d7565b6040516101c29190611dd8565b60405180910390f35b3480156101d757600080fd5b506101f260048036038101906101ed9190611b49565b6104f6565b6040516102029493929190611e1c565b60405180910390f35b34801561021757600080fd5b50610220610566565b60405161022d9190611dd8565b60405180910390f35b34801561024257600080fd5b5061024b61056c565b6040516102589190611dd8565b60405180910390f35b61027b60048036038101906102769190611a5b565b610572565b005b34801561028957600080fd5b506102a4600480360381019061029f9190611a0c565b610781565b005b3480156102b257600080fd5b506102cd60048036038101906102c89190611b49565b610e35565b6040516102da9190611dd8565b60405180910390f35b3480156102ef57600080fd5b506102f8610e52565b6040516103059190611ceb565b60405180910390f35b34801561031a57600080fd5b5061033560048036038101906103309190611bae565b610e76565b6040516103429190611cd0565b60405180910390f35b61036560048036038101906103609190611aaa565b610ec4565b005b34801561037357600080fd5b5061038e60048036038101906103899190611b49565b61119b565b60405161039d93929190611e61565b60405180910390f35b3480156103b257600080fd5b506103cd60048036038101906103c89190611b49565b611205565b6040516103da9190611dd8565b60405180910390f35b3480156103ef57600080fd5b5061040a60048036038101906104059190611b72565b61121d565b6040516104179190611d3d565b60405180910390f35b34801561042c57600080fd5b50610447600480360381019061044291906119d0565b611409565b6040516104549190611dd8565b60405180910390f35b61047760048036038101906104729190611b0d565b61143a565b005b34801561048557600080fd5b5061048e6115fc565b60405161049b9190611dd8565b60405180910390f35b3480156104b057600080fd5b506104cb60048036038101906104c69190611a0c565b611620565b005b6104d561185b565b005b60003373ffffffffffffffffffffffffffffffffffffffff1631905090565b60046020528060005260406000206000915090508060000154908060010160009054906101000a900473ffffffffffffffffffffffffffffffffffffffff16908060020154908060030160009054906101000a900473ffffffffffffffffffffffffffffffffffffffff16905084565b60015481565b60025481565b61057a6118e4565b60016002546105899190611f86565b82146105ca576040517f08c379a00000000000000000000000000000000000000000000000000000000081526004016105c190611d78565b60405180910390fd5b600260008154809291906105dd906120d6565b919050555060405180608001604052808381526020018473ffffffffffffffffffffffffffffffffffffffff16815260200160025481526020013373ffffffffffffffffffffffffffffffffffffffff168152506004600060025481526020019081526020016000206000820151816000015560208201518160010160006101000a81548173ffffffffffffffffffffffffffffffffffffffff021916908373ffffffffffffffffffffffffffffffffffffffff1602179055506040820151816002015560608201518160030160006101000a81548173ffffffffffffffffffffffffffffffffffffffff021916908373ffffffffffffffffffffffffffffffffffffffff160217905550905050600160056000838152602001908152602001600020600082825461070f9190611f86565b925050819055508273ffffffffffffffffffffffffffffffffffffffff167f655a0cf9c8db81512be9a76dc1c5ae5380b8816ce6ad659cd61b715e2999d59a8360025484336040516107649493929190611edd565b60405180910390a261077461185b565b61077c611934565b505050565b6107896118e4565b3373ffffffffffffffffffffffffffffffffffffffff168373ffffffffffffffffffffffffffffffffffffffff16636352211e846040518263ffffffff1660e01b81526004016107d99190611dd8565b60206040518083038186803b1580156107f157600080fd5b505afa158015610805573d6000803e3d6000fd5b505050506040513d601f19601f8201168201806040525081019061082991906119a7565b73ffffffffffffffffffffffffffffffffffffffff161461087f576040517f08c379a000000000000000000000000000000000000000000000000000000000815260040161087690611d58565b60405180910390fd5b60005b6006600084815260200190815260200160002080549050811015610b06578173ffffffffffffffffffffffffffffffffffffffff16600660008581526020019081526020016000208281548110610902577f4e487b7100000000000000000000000000000000000000000000000000000000600052603260045260246000fd5b9060005260206000200160009054906101000a900473ffffffffffffffffffffffffffffffffffffffff1673ffffffffffffffffffffffffffffffffffffffff161415610af357600660008481526020019081526020016000206001600660008681526020019081526020016000208054905061097f9190611fdc565b815481106109b6577f4e487b7100000000000000000000000000000000000000000000000000000000600052603260045260246000fd5b9060005260206000200160009054906101000a900473ffffffffffffffffffffffffffffffffffffffff16600660008581526020019081526020016000208281548110610a2c577f4e487b7100000000000000000000000000000000000000000000000000000000600052603260045260246000fd5b9060005260206000200160006101000a81548173ffffffffffffffffffffffffffffffffffffffff021916908373ffffffffffffffffffffffffffffffffffffffff16021790555060066000848152602001908152602001600020805480610abd577f4e487b7100000000000000000000000000000000000000000000000000000000600052603160045260246000fd5b6001900381819060005260206000200160006101000a81549073ffffffffffffffffffffffffffffffffffffffff021916905590555b8080610afe906120d6565b915050610882565b5060005b600760008373ffffffffffffffffffffffffffffffffffffffff1673ffffffffffffffffffffffffffffffffffffffff16815260200190815260200160002080549050811015610dd15782600760008473ffffffffffffffffffffffffffffffffffffffff1673ffffffffffffffffffffffffffffffffffffffff1681526020019081526020016000208281548110610bcc577f4e487b7100000000000000000000000000000000000000000000000000000000600052603260045260246000fd5b90600052602060002001541415610dbe57600760008373ffffffffffffffffffffffffffffffffffffffff1673ffffffffffffffffffffffffffffffffffffffff1681526020019081526020016000206001600760008573ffffffffffffffffffffffffffffffffffffffff1673ffffffffffffffffffffffffffffffffffffffff16815260200190815260200160002080549050610c6b9190611fdc565b81548110610ca2577f4e487b7100000000000000000000000000000000000000000000000000000000600052603260045260246000fd5b9060005260206000200154600760008473ffffffffffffffffffffffffffffffffffffffff1673ffffffffffffffffffffffffffffffffffffffff1681526020019081526020016000208281548110610d24577f4e487b7100000000000000000000000000000000000000000000000000000000600052603260045260246000fd5b9060005260206000200181905550600760008373ffffffffffffffffffffffffffffffffffffffff1673ffffffffffffffffffffffffffffffffffffffff168152602001908152602001600020805480610da7577f4e487b7100000000000000000000000000000000000000000000000000000000600052603160045260246000fd5b600190038181906000526020600020016000905590555b8080610dc9906120d6565b915050610b0a565b508273ffffffffffffffffffffffffffffffffffffffff167f51ae65be747682556f18eb2ee0f3929a33db715ebd3e667478532f8c11c2a632836002543385604051610e209493929190611e98565b60405180910390a2610e30611934565b505050565b600060056000838152602001908152602001600020549050919050565b7f000000000000000000000000000000000000000000000000000000000000000081565b60066020528160005260406000208181548110610e9257600080fd5b906000526020600020016000915091509054906101000a900473ffffffffffffffffffffffffffffffffffffffff1681565b610ecc6118e4565b6001600254610edb9190611f86565b8314610f1c576040517f08c379a0000000000000000000000000000000000000000000000000000000008152600401610f1390611d78565b60405180910390fd5b60026000815480929190610f2f906120d6565b919050555060405180608001604052808481526020018573ffffffffffffffffffffffffffffffffffffffff16815260200160025481526020013373ffffffffffffffffffffffffffffffffffffffff168152506004600060025481526020019081526020016000206000820151816000015560208201518160010160006101000a81548173ffffffffffffffffffffffffffffffffffffffff021916908373ffffffffffffffffffffffffffffffffffffffff1602179055506040820151816002015560608201518160030160006101000a81548173ffffffffffffffffffffffffffffffffffffffff021916908373ffffffffffffffffffffffffffffffffffffffff16021790555090505060016005600084815260200190815260200160002060008282546110619190611f86565b925050819055508373ffffffffffffffffffffffffffffffffffffffff166323b872dd3383866040518463ffffffff1660e01b81526004016110a593929190611d06565b600060405180830381600087803b1580156110bf57600080fd5b505af11580156110d3573d6000803e3d6000fd5b505050508373ffffffffffffffffffffffffffffffffffffffff167f655a0cf9c8db81512be9a76dc1c5ae5380b8816ce6ad659cd61b715e2999d59a8460025485336040516111259493929190611edd565b60405180910390a28373ffffffffffffffffffffffffffffffffffffffff167f60c3af4bd3198369c53ddf46c7c73f57c3e7949c54c52b18187de1924bfd65a08460025485338660405161117d959493929190611f22565b60405180910390a261118d61185b565b611195611934565b50505050565b60036020528060005260406000206000915090508060000154908060010160009054906101000a900473ffffffffffffffffffffffffffffffffffffffff16908060020160009054906101000a900473ffffffffffffffffffffffffffffffffffffffff16905083565b60056020528060005260406000206000915090505481565b6000806000905060005b6006600086815260200190815260200160002080549050811015611306578373ffffffffffffffffffffffffffffffffffffffff166006600087815260200190815260200160002082815481106112a7577f4e487b7100000000000000000000000000000000000000000000000000000000600052603260045260246000fd5b9060005260206000200160009054906101000a900473ffffffffffffffffffffffffffffffffffffffff1673ffffffffffffffffffffffffffffffffffffffff1614156112f357600191505b80806112fe906120d6565b915050611227565b5060005b600760008573ffffffffffffffffffffffffffffffffffffffff1673ffffffffffffffffffffffffffffffffffffffff168152602001908152602001600020805490508110156113fe5784600760008673ffffffffffffffffffffffffffffffffffffffff1673ffffffffffffffffffffffffffffffffffffffff16815260200190815260200160002082815481106113cc577f4e487b7100000000000000000000000000000000000000000000000000000000600052603260045260246000fd5b906000526020600020015414156113eb57600180156113e85750815b91505b80806113f6906120d6565b91505061130a565b508091505092915050565b6007602052816000526040600020818154811061142557600080fd5b90600052602060002001600091509150505481565b6114426118e4565b600180546114509190611f86565b8114611491576040517f08c379a000000000000000000000000000000000000000000000000000000000815260040161148890611db8565b60405180910390fd5b600160008154809291906114a4906120d6565b919050555060405180606001604052808281526020018373ffffffffffffffffffffffffffffffffffffffff1681526020013373ffffffffffffffffffffffffffffffffffffffff168152506003600060015481526020019081526020016000206000820151816000015560208201518160010160006101000a81548173ffffffffffffffffffffffffffffffffffffffff021916908373ffffffffffffffffffffffffffffffffffffffff16021790555060408201518160020160006101000a81548173ffffffffffffffffffffffffffffffffffffffff021916908373ffffffffffffffffffffffffffffffffffffffff1602179055509050508173ffffffffffffffffffffffffffffffffffffffff167f9957802590e9d40d57be33b4d37eecf5aff4900395a367c06461336d137547f382336040516115e8929190611df3565b60405180910390a26115f8611934565b5050565b7f000000000000000000000000000000000000000000000000000000000000000081565b6116286118e4565b3373ffffffffffffffffffffffffffffffffffffffff168373ffffffffffffffffffffffffffffffffffffffff16636352211e846040518263ffffffff1660e01b81526004016116789190611dd8565b60206040518083038186803b15801561169057600080fd5b505afa1580156116a4573d6000803e3d6000fd5b505050506040513d601f19601f820116820180604052508101906116c891906119a7565b73ffffffffffffffffffffffffffffffffffffffff161461171e576040517f08c379a000000000000000000000000000000000000000000000000000000000815260040161171590611d58565b60405180910390fd5b60066000838152602001908152602001600020819080600181540180825580915050600190039060005260206000200160009091909190916101000a81548173ffffffffffffffffffffffffffffffffffffffff021916908373ffffffffffffffffffffffffffffffffffffffff160217905550600760008273ffffffffffffffffffffffffffffffffffffffff1673ffffffffffffffffffffffffffffffffffffffff1681526020019081526020016000208290806001815401808255809150506001900390600052602060002001600090919091909150558273ffffffffffffffffffffffffffffffffffffffff167f877e3c9bad8c007a196b2e7625bcd65fe3fd14227894cba4dd96ab2c73fd738a8360025433856040516118469493929190611e98565b60405180910390a2611856611934565b505050565b7f000000000000000000000000000000000000000000000000000000000000000073ffffffffffffffffffffffffffffffffffffffff166108fc7f00000000000000000000000000000000000000000000000000000000000000009081150290604051600060405180830381858888f193505050501580156118e1573d6000803e3d6000fd5b50565b6002600054141561192a576040517f08c379a000000000000000000000000000000000000000000000000000000000815260040161192190611d98565b60405180910390fd5b6002600081905550565b6001600081905550565b60008135905061194d81612218565b92915050565b60008151905061196281612218565b92915050565b6000813590506119778161222f565b92915050565b60008135905061198c81612246565b92915050565b6000813590506119a18161225d565b92915050565b6000602082840312156119b957600080fd5b60006119c784828501611953565b91505092915050565b600080604083850312156119e357600080fd5b60006119f18582860161193e565b9250506020611a0285828601611992565b9150509250929050565b600080600060608486031215611a2157600080fd5b6000611a2f86828701611968565b9350506020611a4086828701611992565b9250506040611a518682870161193e565b9150509250925092565b600080600060608486031215611a7057600080fd5b6000611a7e86828701611968565b9350506020611a8f86828701611992565b9250506040611aa086828701611992565b9150509250925092565b60008060008060808587031215611ac057600080fd5b6000611ace87828801611968565b9450506020611adf87828801611992565b9350506040611af087828801611992565b9250506060611b018782880161193e565b91505092959194509250565b60008060408385031215611b2057600080fd5b6000611b2e8582860161197d565b9250506020611b3f85828601611992565b9150509250929050565b600060208284031215611b5b57600080fd5b6000611b6984828501611992565b91505092915050565b60008060408385031215611b8557600080fd5b6000611b9385828601611992565b9250506020611ba48582860161193e565b9150509250929050565b60008060408385031215611bc157600080fd5b6000611bcf85828601611992565b9250506020611be085828601611992565b9150509250929050565b611bf381612022565b82525050565b611c0281612010565b82525050565b611c1181612034565b82525050565b611c208161208e565b82525050565b611c2f816120b2565b82525050565b6000611c42603283611f75565b9150611c4d8261214e565b604082019050919050565b6000611c65601583611f75565b9150611c708261219d565b602082019050919050565b6000611c88601f83611f75565b9150611c93826121c6565b602082019050919050565b6000611cab601683611f75565b9150611cb6826121ef565b602082019050919050565b611cca81612084565b82525050565b6000602082019050611ce56000830184611bf9565b92915050565b6000602082019050611d006000830184611bea565b92915050565b6000606082019050611d1b6000830186611bf9565b611d286020830185611bf9565b611d356040830184611cc1565b949350505050565b6000602082019050611d526000830184611c08565b92915050565b60006020820190508181036000830152611d7181611c35565b9050919050565b60006020820190508181036000830152611d9181611c58565b9050919050565b60006020820190508181036000830152611db181611c7b565b9050919050565b60006020820190508181036000830152611dd181611c9e565b9050919050565b6000602082019050611ded6000830184611cc1565b92915050565b6000604082019050611e086000830185611cc1565b611e156020830184611bf9565b9392505050565b6000608082019050611e316000830187611cc1565b611e3e6020830186611c17565b611e4b6040830185611cc1565b611e586060830184611bea565b95945050505050565b6000606082019050611e766000830186611cc1565b611e836020830185611c26565b611e906040830184611bf9565b949350505050565b6000608082019050611ead6000830187611cc1565b611eba6020830186611cc1565b611ec76040830185611bf9565b611ed46060830184611bf9565b95945050505050565b6000608082019050611ef26000830187611cc1565b611eff6020830186611cc1565b611f0c6040830185611cc1565b611f196060830184611bf9565b95945050505050565b600060a082019050611f376000830188611cc1565b611f446020830187611cc1565b611f516040830186611cc1565b611f5e6060830185611bf9565b611f6b6080830184611bf9565b9695505050505050565b600082825260208201905092915050565b6000611f9182612084565b9150611f9c83612084565b9250827fffffffffffffffffffffffffffffffffffffffffffffffffffffffffffffffff03821115611fd157611fd061211f565b5b828201905092915050565b6000611fe782612084565b9150611ff283612084565b9250828210156120055761200461211f565b5b828203905092915050565b600061201b82612064565b9050919050565b600061202d82612064565b9050919050565b60008115159050919050565b600061204b82612010565b9050919050565b600061205d82612010565b9050919050565b600073ffffffffffffffffffffffffffffffffffffffff82169050919050565b6000819050919050565b6000612099826120a0565b9050919050565b60006120ab82612064565b9050919050565b60006120bd826120c4565b9050919050565b60006120cf82612064565b9050919050565b60006120e182612084565b91507fffffffffffffffffffffffffffffffffffffffffffffffffffffffffffffffff8214156121145761211361211f565b5b600182019050919050565b7f4e487b7100000000000000000000000000000000000000000000000000000000600052601160045260246000fd5b7f455243353131343a207472616e736665722063616c6c6572206973206e6f742060008201527f6f776e6572206e6f7220617070726f7665640000000000000000000000000000602082015250565b7f496e76616c696420534254204964206e756d6265720000000000000000000000600082015250565b7f5265656e7472616e637947756172643a207265656e7472616e742063616c6c00600082015250565b7f496e76616c696420536f756c204944206e756d62657200000000000000000000600082015250565b61222181612010565b811461222c57600080fd5b50565b61223881612040565b811461224357600080fd5b50565b61224f81612052565b811461225a57600080fd5b50565b61226681612084565b811461227157600080fd5b5056fea2646970667358221220dc50fe790662d65ce7a4c4fe52c752ea1b2c3d716fd2951ada077e89fb68ed7164736f6c63430008040033",
  "linkReferences": {},
  "deployedLinkReferences": {}
}