{
  "_format": "hh-sol-artifact-1",
  "contractName": "SoulHub",
  "sourceName": "src/backend/contracts/SoulHub.sol",
  "abi": [
    {
      "inputs": [
        {
          "internalType": "uint256",
          "name": "_fee",
          "type": "uint256"
        }
      ],
      "stateMutability": "nonpayable",
      "type": "constructor"
    },
    {
      "anonymous": false,
      "inputs": [
        {
          "indexed": false,
          "internalType": "uint256",
          "name": "soulId",
          "type": "uint256"
        },
        {
          "indexed": true,
          "internalType": "address",
          "name": "soul",
          "type": "address"
        },
        {
          "indexed": true,
          "internalType": "address",
          "name": "minter",
          "type": "address"
        }
      ],
      "name": "CreatedSoul",
      "type": "event"
    },
    {
      "inputs": [],
      "name": "fee",
      "outputs": [
        {
          "internalType": "uint256",
          "name": "",
          "type": "uint256"
        }
      ],
      "stateMutability": "view",
      "type": "function"
    },
    {
      "inputs": [],
      "name": "feeAccount",
      "outputs": [
        {
          "internalType": "address payable",
          "name": "",
          "type": "address"
        }
      ],
      "stateMutability": "view",
      "type": "function"
    },
    {
      "inputs": [
        {
          "internalType": "address",
          "name": "_soulAddress",
          "type": "address"
        }
      ],
      "name": "getSoulName",
      "outputs": [
        {
          "internalType": "string",
          "name": "",
          "type": "string"
        }
      ],
      "stateMutability": "view",
      "type": "function"
    },
    {
      "inputs": [
        {
          "internalType": "address",
          "name": "_soulAddress",
          "type": "address"
        },
        {
          "internalType": "contract IERC721",
          "name": "_sbt",
          "type": "address"
        }
      ],
      "name": "makeSBT",
      "outputs": [],
      "stateMutability": "nonpayable",
      "type": "function"
    },
    {
      "inputs": [
        {
          "internalType": "address",
          "name": "_soulAddress",
          "type": "address"
        },
        {
          "internalType": "contract IERC721",
          "name": "_sbt",
          "type": "address"
        },
        {
          "internalType": "address",
          "name": "_mintee",
          "type": "address"
        }
      ],
      "name": "makeSBTFor",
      "outputs": [],
      "stateMutability": "nonpayable",
      "type": "function"
    },
    {
      "inputs": [
        {
          "internalType": "contract Soul",
          "name": "_soul",
          "type": "address"
        }
      ],
      "name": "makeSoul",
      "outputs": [],
      "stateMutability": "nonpayable",
      "type": "function"
    },
    {
      "inputs": [],
      "name": "soulCount",
      "outputs": [
        {
          "internalType": "uint256",
          "name": "",
          "type": "uint256"
        }
      ],
      "stateMutability": "view",
      "type": "function"
    },
    {
      "inputs": [
        {
          "internalType": "uint256",
          "name": "",
          "type": "uint256"
        }
      ],
      "name": "soulWallet",
      "outputs": [
        {
          "internalType": "uint256",
          "name": "soulId",
          "type": "uint256"
        },
        {
          "internalType": "contract Soul",
          "name": "soul",
          "type": "address"
        },
        {
          "internalType": "address",
          "name": "minter",
          "type": "address"
        }
      ],
      "stateMutability": "view",
      "type": "function"
    },
    {
      "inputs": [],
      "name": "transferGas",
      "outputs": [],
      "stateMutability": "payable",
      "type": "function"
    }
  ],
  "bytecode": "0x60c060405234801561001057600080fd5b50604051610e71380380610e7183398181016040528101906100329190610094565b60016000819055503373ffffffffffffffffffffffffffffffffffffffff1660808173ffffffffffffffffffffffffffffffffffffffff1660601b815250508060a08181525050506100de565b60008151905061008e816100c7565b92915050565b6000602082840312156100a657600080fd5b60006100b48482850161007f565b91505092915050565b6000819050919050565b6100d0816100bd565b81146100db57600080fd5b50565b60805160601c60a051610d5d610114600039600081816105850152610665015260008181610472015261062b0152610d5d6000f3fe6080604052600436106100865760003560e01c8063a1303f6811610059578063a1303f6814610147578063d269d6d314610170578063ddca3f43146101af578063e2f8df37146101da578063fa03f7971461020357610086565b80632212f2841461008b5780633fb60769146100b457806365e17c9d146100f15780636e2456a71461011c575b600080fd5b34801561009757600080fd5b506100b260048036038101906100ad9190610811565b61020d565b005b3480156100c057600080fd5b506100db60048036038101906100d6919061075d565b6103de565b6040516100e891906109c6565b60405180910390f35b3480156100fd57600080fd5b50610106610470565b604051610113919061094b565b60405180910390f35b34801561012857600080fd5b50610131610494565b60405161013e9190610a08565b60405180910390f35b34801561015357600080fd5b5061016e60048036038101906101699190610786565b61049a565b005b34801561017c57600080fd5b506101976004803603810190610192919061087b565b610519565b6040516101a693929190610a23565b60405180910390f35b3480156101bb57600080fd5b506101c4610583565b6040516101d19190610a08565b60405180910390f35b3480156101e657600080fd5b5061020160048036038101906101fc91906107c2565b6105a7565b005b61020b610629565b005b60026000541415610253576040517f08c379a000000000000000000000000000000000000000000000000000000000815260040161024a906109e8565b60405180910390fd5b60026000819055506001600081548092919061026e90610bea565b9190505550604051806060016040528060015481526020018273ffffffffffffffffffffffffffffffffffffffff1681526020013373ffffffffffffffffffffffffffffffffffffffff168152506002600060015481526020019081526020016000206000820151816000015560208201518160010160006101000a81548173ffffffffffffffffffffffffffffffffffffffff021916908373ffffffffffffffffffffffffffffffffffffffff16021790555060408201518160020160006101000a81548173ffffffffffffffffffffffffffffffffffffffff021916908373ffffffffffffffffffffffffffffffffffffffff1602179055509050503373ffffffffffffffffffffffffffffffffffffffff168173ffffffffffffffffffffffffffffffffffffffff167f9957802590e9d40d57be33b4d37eecf5aff4900395a367c06461336d137547f36001546040516103cb9190610a08565b60405180910390a3600160008190555050565b606060008290508073ffffffffffffffffffffffffffffffffffffffff1663b507d4816040518163ffffffff1660e01b815260040160006040518083038186803b15801561042b57600080fd5b505afa15801561043f573d6000803e3d6000fd5b505050506040513d6000823e3d601f19601f82011682018060405250810190610468919061083a565b915050919050565b7f000000000000000000000000000000000000000000000000000000000000000081565b60015481565b60008290508073ffffffffffffffffffffffffffffffffffffffff1663161cba8683856040518363ffffffff1660e01b81526004016104da929190610966565b600060405180830381600087803b1580156104f457600080fd5b505af1158015610508573d6000803e3d6000fd5b50505050610514610629565b505050565b60026020528060005260406000206000915090508060000154908060010160009054906101000a900473ffffffffffffffffffffffffffffffffffffffff16908060020160009054906101000a900473ffffffffffffffffffffffffffffffffffffffff16905083565b7f000000000000000000000000000000000000000000000000000000000000000081565b60008390508073ffffffffffffffffffffffffffffffffffffffff166324bd59848484876040518463ffffffff1660e01b81526004016105e99392919061098f565b600060405180830381600087803b15801561060357600080fd5b505af1158015610617573d6000803e3d6000fd5b50505050610623610629565b50505050565b7f000000000000000000000000000000000000000000000000000000000000000073ffffffffffffffffffffffffffffffffffffffff166108fc7f00000000000000000000000000000000000000000000000000000000000000009081150290604051600060405180830381858888f1935050505050565b60006106b46106af84610a7f565b610a5a565b9050828152602081018484840111156106cc57600080fd5b6106d7848285610b86565b509392505050565b6000813590506106ee81610ccb565b92915050565b60008135905061070381610ce2565b92915050565b60008135905061071881610cf9565b92915050565b600082601f83011261072f57600080fd5b815161073f8482602086016106a1565b91505092915050565b60008135905061075781610d10565b92915050565b60006020828403121561076f57600080fd5b600061077d848285016106df565b91505092915050565b6000806040838503121561079957600080fd5b60006107a7858286016106df565b92505060206107b8858286016106f4565b9150509250929050565b6000806000606084860312156107d757600080fd5b60006107e5868287016106df565b93505060206107f6868287016106f4565b9250506040610807868287016106df565b9150509250925092565b60006020828403121561082357600080fd5b600061083184828501610709565b91505092915050565b60006020828403121561084c57600080fd5b600082015167ffffffffffffffff81111561086657600080fd5b6108728482850161071e565b91505092915050565b60006020828403121561088d57600080fd5b600061089b84828501610748565b91505092915050565b6108ad81610ade565b82525050565b6108bc81610acc565b82525050565b6108cb81610b3e565b82525050565b6108da81610b62565b82525050565b60006108eb82610ab0565b6108f58185610abb565b9350610905818560208601610b86565b61090e81610c91565b840191505092915050565b6000610926601f83610abb565b915061093182610ca2565b602082019050919050565b61094581610b34565b82525050565b600060208201905061096060008301846108a4565b92915050565b600060408201905061097b60008301856108c2565b61098860208301846108b3565b9392505050565b60006060820190506109a460008301866108c2565b6109b160208301856108b3565b6109be60408301846108b3565b949350505050565b600060208201905081810360008301526109e081846108e0565b905092915050565b60006020820190508181036000830152610a0181610919565b9050919050565b6000602082019050610a1d600083018461093c565b92915050565b6000606082019050610a38600083018661093c565b610a4560208301856108d1565b610a5260408301846108b3565b949350505050565b6000610a64610a75565b9050610a708282610bb9565b919050565b6000604051905090565b600067ffffffffffffffff821115610a9a57610a99610c62565b5b610aa382610c91565b9050602081019050919050565b600081519050919050565b600082825260208201905092915050565b6000610ad782610b14565b9050919050565b6000610ae982610b14565b9050919050565b6000610afb82610acc565b9050919050565b6000610b0d82610acc565b9050919050565b600073ffffffffffffffffffffffffffffffffffffffff82169050919050565b6000819050919050565b6000610b4982610b50565b9050919050565b6000610b5b82610b14565b9050919050565b6000610b6d82610b74565b9050919050565b6000610b7f82610b14565b9050919050565b60005b83811015610ba4578082015181840152602081019050610b89565b83811115610bb3576000848401525b50505050565b610bc282610c91565b810181811067ffffffffffffffff82111715610be157610be0610c62565b5b80604052505050565b6000610bf582610b34565b91507fffffffffffffffffffffffffffffffffffffffffffffffffffffffffffffffff821415610c2857610c27610c33565b5b600182019050919050565b7f4e487b7100000000000000000000000000000000000000000000000000000000600052601160045260246000fd5b7f4e487b7100000000000000000000000000000000000000000000000000000000600052604160045260246000fd5b6000601f19601f8301169050919050565b7f5265656e7472616e637947756172643a207265656e7472616e742063616c6c00600082015250565b610cd481610acc565b8114610cdf57600080fd5b50565b610ceb81610af0565b8114610cf657600080fd5b50565b610d0281610b02565b8114610d0d57600080fd5b50565b610d1981610b34565b8114610d2457600080fd5b5056fea2646970667358221220f02d7dda4e39ad709252ccb281113f7ce646f44c9b5d2701258a3bcc788b195e64736f6c63430008040033",
  "linkReferences": {},
  "deployedLinkReferences": {}
}